0001271012011430018000140PERNAMBUCO SECRETARIA DE SAUDE          201000020000020210201101605                                                                                                                                                                                                                                                                                                                                                                                                                  000001
11076479524000047ERNANI FAEZY DE OLIVEIRA      RUA DOM PEDRO HENRIQUE                  5005015023705635900000000447285 0000000000373344000000000000000               202102040000000000000000000000000296408000000000296408000000000000000000000000000000050000000000  0520210204   01          000                                                                                                                          00                                                         00298 10700060        000002
11024802683000065ABILIO AUGUSTO PIMENTEL CRUZ  RUA RANGEL PESTANA                      6083301223703935700000000148741 0000000000373345000000000000000               202102040000000000000000000000000296408000000000296408000000000000000000000000000000050000000000  0520210204   01          000                                                                                                                          00                                                         00298 10700060        000003
11042754145000000ACACIA MARIA DOS SANTOS SHIRAKRUA DAS PATATIVAS                       4172010023707135800000000343358 0000000000373346000000000000000               202102040000000000000000000000000296408000000000296408000000000000000000000000000000050000000000  0520210204   01          000                                                                                                                          00                                                         00298 10700060        000004
11047674304000045ADALVA CARNEIRO DE MIRANDA    RUA JOÃO MURILO DE OLIVEIRA             5560412023702518600000000366277 0000000000373347000000000000000               202102040000000000000000000000000296408000000000296408000000000000000000000000000000050000000000  0520210204   01          000                                                                                                                          00                                                         00298 10700060        000005
11073451894000030ADAUTO CEZAR MELO PAIVA       RUA GENERAL CÂNDIDO BORGES CASTELO BRANC5067017023705619700000000227838 0000000000373348000000000000000               202102040000000000000000000000000296408000000000296408000000000000000000000000000000050000000000  0520210204   01          000                                                                                                                          00                                                         00298 10700060        000006
11009392435000063ADEMARIO ROCHA GOMES          PRIMEIRA TRV SEVERINO DAMASIO SILVA     5550000023701116900000000093971 0000000000373349000000000000000               202102040000000000000000000000000296408000000000296408000000000000000000000000000000050000000000  0520210204   01          000                                                                                                                          00                                                         00298 10700060        000007
11017981523000071ADNA KAMILLA  MARTINS DE ALENCAVENIDA AILTON GOMES                    6302000023700456100000000327107 0000000000373350000000000000000               202102040000000000000000000000000296408000000000296408000000000000000000000000000000050000000000  0520210204   01          000                                                                                                                          00                                                         00298 10700060        000008
11096663024000062ADOLPHO DE BARROS E SILVA DE ORUA ALFREDO DE MEDEIROS                 5202103023703206900000000061638 0000000000373351000000000000000               202102040000000000000000000000000296408000000000296408000000000000000000000000000000050000000000  0520210204   01          000                                                                                                                          00                                                         00298 10700060        000009
11054233074000014ADRIA LINS GONCALVES          RUA PROFESSOR HENRIQUE DE LUCENA        5092020023701230000000002107945 0000000000373352000000000000000               202102040000000000000000000000000296408000000000296408000000000000000000000000000000050000000000  0520210204   01          000                                                                                                                          00                                                         00298 10700060        000010
11007410054000084ADRIANA  MELO BARBOSA COSTA   RUA HÉLIO PRADINES                      5703522023703902000000000101052 0000000000373353000000000000000               202102040000000000000000000000000296408000000000296408000000000000000000000000000000050000000000  0520210204   01          000                                                                                                                          00                                                         00298 10700060        000011
11062817464000006ADRIANO CLEMENTINO FERREIRA   RUA DEMÓCRITO DE SOUZA FILHO            5061012023705635900000000475211 0000000000373354000000000000000               202102040000000000000000000000000296408000000000296408000000000000000000000000000000050000000000  0520210204   01          000                                                                                                                          00                                                         00298 10700060        000012
11097685454000061ADRIANO HENRIQUE LEITE SOARES AVENIDA HERCULANO BANDEIRA              5111013123702399000000000182869 0000000000373355000000000000000               202102040000000000000000000000000296408000000000296408000000000000000000000000000000050000000000  0520210204   01          000                                                                                                                          00                                                         00298 10700060        000013
11101781774000007ADRIELY VICTOR DE SIQUEIRA    RUA FLOR-DE-CACTO                       5444054023701232700000000261289 0000000000373356000000000000000               202102040000000000000000000000000296408000000000296408000000000000000000000000000000050000000000  0520210204   01          000                                                                                                                          00                                                         00298 10700060        000014
11059156213000084AGEU DE OLIVERA SARAIVA       RUA DOM MELO                            6310107523700454500000003500020 0000000000373357000000000000000               202102040000000000000000000000000296408000000000296408000000000000000000000000000000050000000000  0520210204   01          000                                                                                                                          00                                                         00298 10700060        000015
11074110324000092AIANY SABRINY DE MACEDO NUNES RUA EMILIANO BRAGA - ATÉ 118/119                23702322100000002610884 0000000000373358000000000000000               202102040000000000000000000000000296408000000000296408000000000000000000000000000000050000000000  0520210204   01          000                                                                                                                          00                                                         00298 10700060        000016
11089639544000080AILA MAIARA ALBUQUERQUE       RUA PRESIDENTE COSTA E SILVA            5841660023706342800000000098264 0000000000373359000000000000000               202102040000000000000000000000000296408000000000296408000000000000000000000000000000050000000000  0520210204   01          000                                                                                                                          00                                                         00298 10700060        000017
11060462084000059AILKYANNE KARELLY PEREIRA DE ORUA DUQUE DE CAXIAS                     5658000023703210700000000356344 0000000000373360000000000000000               202102040000000000000000000000000296408000000000296408000000000000000000000000000000050000000000  0520210204   01          000                                                                                                                          00                                                         00298 10700060        000018
11055828693000036AILTON JOSE DE SOUZA JUNIOR   RUA VEREADOR SILVINO CORDEIRO DE SIQUEIR5691211023700586000000000443840 0000000000373361000000000000000               202102040000000000000000000000000296408000000000296408000000000000000000000000000000050000000000  0520210204   01          000                                                                                                                          00                                                         00298 10700060        000019
11077385494000008AIRTON LUIZ TENORIO JUNIOR    RUA ANTÔNIO CAMILO DIAS                 5072058523702992000000000394572 0000000000373362000000000000000               202102040000000000000000000000000296408000000000296408000000000000000000000000000000050000000000  0520210204   01          000                                                                                                                          00                                                         00298 10700060        000020
11041682315000077AKSA RAIZZA TAVARES DE ALBUQUERUA OURICURI                            5630223023702731600000000606766 0000000000373363000000000000000               202102040000000000000000000000000296408000000000296408000000000000000000000000000000050000000000  0520210204   01          000                                                                                                                          00                                                         00298 10700060        000021
11071280984000088ALANA CARLA ALBUQUERQUE SARMENRUA MINISTRO NELSON HUNGRIA             5102010023706249900000000056979 0000000000373364000000000000000               202102040000000000000000000000000296408000000000296408000000000000000000000000000000050000000000  0520210204   01          000                                                                                                                          00                                                         00298 10700060        000022
11053047614000021ALANA DANTAS DE MELO          ALAMEDA DAS MANSÕES 3693                5906490223702173300000000111058 0000000000373365000000000000000               202102040000000000000000000000000296408000000000296408000000000000000000000000000000050000000000  0520210204   01          000                                                                                                                          00                                                         00298 10700060        000023
11103322924000052ALANNA CECILIA FARIAS DE ARAUJTRAVESSA AGAMENON MAGALHÃES             5341335123701606300000001038923 0000000000373366000000000000000               202102040000000000000000000000000296408000000000296408000000000000000000000000000000050000000000  0520210204   01          000                                                                                                                          00                                                         00298 10700060        000024
11033518513000040ALANNA KARINE RIBEIRO ALENCAR RUA DOUTOR NATHAN PORTELA NUNES         6404849523706342800000000134740 0000000000373367000000000000000               202102040000000000000000000000000296408000000000296408000000000000000000000000000000050000000000  0520210204   01          000                                                                                                                          00                                                         00298 10700060        000025
11063269694000009ALANNA PAULA VASCONCELOS DA SIAVENIDA ULISSES MONTARROYOS             5446028023703190900000000224804 0000000000373368000000000000000               202102040000000000000000000000000296408000000000296408000000000000000000000000000000050000000000  0520210204   01          000                                                                                                                          00                                                         00298 10700060        000026
11067372654000013ALBA ROSSANA VIEIRA COSTA     RUA ALMIRANTE BARROSO                   5841607023700639400000000036064 0000000000373369000000000000000               202102040000000000000000000000000296408000000000296408000000000000000000000000000000050000000000  0520210204   01          000                                                                                                                          00                                                         00298 10700060        000027
11099467674000030ALBERICO MACEDO BERTINO DE SA RODOVIA BR 316                                  23701081200000000195855 0000000000373370000000000000000               202102040000000000000000000000000296408000000000296408000000000000000000000000000000050000000000  0520210204   01          000                                                                                                                          00                                                         00298 10700060        000028
11076087684000036ALCEBIADES JOSE DOS SANTOS NETRUA PRESIDENTE KENEDY                   5930000023701038300000000298239 0000000000373371000000000000000               202102040000000000000000000000000296408000000000296408000000000000000000000000000000050000000000  0520210204   01          000                                                                                                                          00                                                         00298 10700060        000029
11074841594000076ALCIRA CINNTHIA MONTEIRO DE FRRUA PERPEDIGNA DE SOUZA BARBOSA         5575000023700835400000000206547 0000000000373372000000000000000               202102040000000000000000000000000296408000000000296408000000000000000000000000000000050000000000  0520210204   01          000                                                                                                                          00                                                         00298 10700060        000030
11063044953000082ALDROVANDO NERY DE AGUIAR JUNIRUA JOSÉ ALVES CAVALCANTE               6082257023700714500000000178756 0000000000373373000000000000000               202102040000000000000000000000000296408000000000296408000000000000000000000000000000050000000000  0520210204   01          000                                                                                                                          00                                                         00298 10700060        000031
11005474142000042ALESSANDRA ALEIXO ABDON       TRAVESSA TRÊS DE MAIO                           23702518600000000413976 0000000000373374000000000000000               202102040000000000000000000000000296408000000000296408000000000000000000000000000000050000000000  0520210204   01          000                                                                                                                          00                                                         00298 10700060        000032
11088520464000061ALESSANDRA DE LOURDES  XIMENESRUA AGUANIL                             5091040023706083600000000030007 0000000000373375000000000000000               202102040000000000000000000000000296408000000000296408000000000000000000000000000000050000000000  0520210204   01          000                                                                                                                          00                                                         00298 10700060        000033
11108305904000012ALESSANDRA FERREIRA GREGORIO  RUA DO PATROCINADOR                     5134554023700289500000000274240 0000000000373376000000000000000               202102040000000000000000000000000296408000000000296408000000000000000000000000000000050000000000  0520210204   01          000                                                                                                                          00                                                         00298 10700060        000034
11086297084000092ALESSANDRA VASCONCELOS DE SENARUA COLINA DAS PALMEIRAS                5915113023702821500000000363189 0000000000373377000000000000000               202102040000000000000000000000000296408000000000296408000000000000000000000000000000050000000000  0520210204   01          000                                                                                                                          00                                                         00298 10700060        000035
11045659124000090ALESSANDRO ALVES DE ALMEIDA   RUA JOSÉ BONIFÁCIO                      5071043523701232700000001800183 0000000000373378000000000000000               202102040000000000000000000000000296408000000000296408000000000000000000000000000000050000000000  0520210204   01          000                                                                                                                          00                                                         00298 10700060        000036
11017661003000009ALESSANDRO LUCAS DE OLIVEIRA  AVENIDA CEARÁ                           5501642023701230000000000527378 0000000000373379000000000000000               202102040000000000000000000000000296408000000000296408000000000000000000000000000000050000000000  0520210204   01          000                                                                                                                          00                                                         00298 10700060        000037
11045419125000011ALEX ANDRE FERREIRA QUEIROZ   AVENIDA CENTENÁRIO                      4909004023701438900000000481351 0000000000373380000000000000000               202102040000000000000000000000000296408000000000296408000000000000000000000000000000050000000000  0520210204   01          000                                                                                                                          00                                                         00298 10700060        000038
11048022124000037ALEXANDRA BARROS DA SANTANA   RUA RINALDO BEZERRA NEGROMONTE, BAIRRO: 5480000023701164900000001014668 0000000000373381000000000000000               202102040000000000000000000000000296408000000000296408000000000000000000000000000000050000000000  0520210204   01          000                                                                                                                          00                                                         00298 10700060        000039
11089144844000067ALEXANDRA RABELLO FREIRE      RUA DONA ADA VIEIRA                     5206052023703205000000000215236 0000000000373382000000000000000               202102040000000000000000000000000296408000000000296408000000000000000000000000000000050000000000  0520210204   01          000                                                                                                                          00                                                         00298 10700060        000040
11058272574000078ALEXANDRE  DURAM DE LIMA JUINIRUA JOÃO PEQUENO                        5841015023706230800000002016303 0000000000373383000000000000000               202102040000000000000000000000000296408000000000296408000000000000000000000000000000050000000000  0520210204   01          000                                                                                                                          00                                                         00298 10700060        000041
11629879504000097ALEXANDRE HERCULANO DE ALENCARRUA PADRE BERNARDINO PESSOA             5102021023700836200000000011592 0000000000373384000000000000000               202102040000000000000000000000000296408000000000296408000000000000000000000000000000050000000000  0520210204   01          000                                                                                                                          00                                                         00298 10700060        000042
11097331224000067ALEXANDRE MAKOTO MINODA       AVENIDA CARDOSO DE SÁ                   5630211023706342800000000115487 0000000000373385000000000000000               202102040000000000000000000000000296408000000000296408000000000000000000000000000000050000000000  0520210204   01          000                                                                                                                          00                                                         00298 10700060        000043
11055089143000090ALEXIA LAVINIA HOLANDA GAMA   AVENIDA GOVERNADOR JUVENAL LAMARTINE    5902202023700906700000003516520 0000000000373386000000000000000               202102040000000000000000000000000296408000000000296408000000000000000000000000000000050000000000  0520210204   01          000                                                                                                                          00                                                         00298 10700060        000044
11075078834000085ALFREDO HENRIQUE CECILIO MARINRUA OURÉM                               5076134023703204200000000039837 0000000000373387000000000000000               202102040000000000000000000000000296408000000000296408000000000000000000000000000000050000000000  0520210204   01          000                                                                                                                          00                                                         00298 10700060        000045
11071929094000059ALICE DIAS RIBEIRO DE ANDRADE RUA DO PAISSANDÚ                        5201000023701164900000000051470 0000000000373388000000000000000               202102040000000000000000000000000296408000000000296408000000000000000000000000000000050000000000  0520210204   01          000                                                                                                                          00                                                         00298 10700060        000046
11110665754000036ALICE IALLY SILVA LEANDRO     RUA BARREIROS                           5503851023706345200000000215082 0000000000373389000000000000000               202102040000000000000000000000000296408000000000296408000000000000000000000000000000050000000000  0520210204   01          000                                                                                                                          00                                                         00298 10700060        000047
11055687764000007ALICE LINS MAURICIO BATISTA   RUA AMAZONAS                            5101102023702300000000000065064 0000000000373390000000000000000               202102040000000000000000000000000296408000000000296408000000000000000000000000000000050000000000  0520210204   01          000                                                                                                                          00                                                         00298 10700060        000048
11087289394000041ALICE MARIA BARBOSA DA SILVA  RUA ANA MAURÍCIA WANDERLEY              5212021023701164900000000067318 0000000000373391000000000000000               202102040000000000000000000000000296408000000000296408000000000000000000000000000000050000000000  0520210204   01          000                                                                                                                          00                                                         00298 10700060        000049
11054831323000078ALICE NOGUEIRA RODRIGUES      VILA CANAÃ                              6356000023705302300000000018953 0000000000373392000000000000000               202102040000000000000000000000000296408000000000296408000000000000000000000000000000050000000000  0520210204   01          000                                                                                                                          00                                                         00298 10700060        000050
11072602774000008ALINE  DE VASCONCELOS VIERA DORUA MINISTRO NELSON HUNGRIA             5102010023706343600000000009997 0000000000373393000000000000000               202102040000000000000000000000000296408000000000296408000000000000000000000000000000050000000000  0520210204   01          000                                                                                                                          00                                                         00298 10700060        000051
11095179334000095ALINE ALVES NUNES             RUA SANTO ELIAS                         5202009523706343600000000053333 0000000000373394000000000000000               202102040000000000000000000000000296408000000000296408000000000000000000000000000000050000000000  0520210204   01          000                                                                                                                          00                                                         00298 10700060        000052
11106838834000002ALINE ARAUJO GOMES SANDES     RUA MAURÍCIO DE NASSAU                  5630601023703101100000001008382 0000000000373395000000000000000               202102040000000000000000000000000296408000000000296408000000000000000000000000000000050000000000  0520210204   01          000                                                                                                                          00                                                         00298 10700060        000053
11096622734000041ALINE COSTA PINHEIRO          RUA GENERAL POLIDORO                    5074005023701055300000000318817 0000000000373396000000000000000               202102040000000000000000000000000296408000000000296408000000000000000000000000000000050000000000  0520210204   01          000                                                                                                                          00                                                         00298 10700060        000054
11013936114000060ALINE DANTAS DE SA            RUA CAPITÃO REBELINHO                   5101101023701729900000000509353 0000000000373397000000000000000               202102040000000000000000000000000296408000000000296408000000000000000000000000000000050000000000  0520210204   01          000                                                                                                                          00                                                         00298 10700060        000055
11094586954000014ALINE DE ALMEIDA ARRUDA       AVENIDA GONÇALVES MAIA                  5529549023706327400000000065560 0000000000373398000000000000000               202102040000000000000000000000000296408000000000296408000000000000000000000000000000050000000000  0520210204   01          000                                                                                                                          00                                                         00298 10700060        000056
11113364284000057ALINE DE SOUSA SANTOS         SÍTIO MATA DOS GALDINOS                 5891000023702322100000000120294 0000000000373399000000000000000               202102040000000000000000000000000296408000000000296408000000000000000000000000000000050000000000  0520210204   01          000                                                                                                                          00                                                         00298 10700060        000057
11068681034000017ALINE DUARTE DE SOUZA         RUA QUARENTA E UM                       5472001223701903800000000305308 0000000000373400000000000000000               202102040000000000000000000000000296408000000000296408000000000000000000000000000000050000000000  0520210204   01          000                                                                                                                          00                                                         00298 10700060        000058
11103666854000014ALINE FIGUEIRAS DA TRINDADE   RUA CEARÁ                               5204113023703210700000000356557 0000000000373401000000000000000               202102040000000000000000000000000296408000000000296408000000000000000000000000000000050000000000  0520210204   01          000                                                                                                                          00                                                         00298 10700060        000059
11056286334000061ALINE KELLY DE MOURA          RUA CINQÜENTA                                   23700836200000000057053 0000000000373402000000000000000               202102040000000000000000000000000296408000000000296408000000000000000000000000000000050000000000  0520210204   01          000                                                                                                                          00                                                         00298 10700060        000060
11097550134000082ALINE MARQUES SOEIRO CABRAL   AVENIDA CONSELHEIRO AGUIAR              5102002023701771000000000261467 0000000000373403000000000000000               202102040000000000000000000000000296408000000000296408000000000000000000000000000000050000000000  0520210204   01          000                                                                                                                          00                                                         00298 10700060        000061
11097808174000092ALINE SALES GUERRA            RUA MARQUÊS DE TAMANDARÉ                5206117023702518600000000412503 0000000000373404000000000000000               202102040000000000000000000000000296408000000000296408000000000000000000000000000000050000000000  0520210204   01          000                                                                                                                          00                                                         00298 10700060        000062
11066789954000057ALINE SORAIA CANDEIA DA LUZ   RUA PEDRA FINA                          5067052023702560700000000069477 0000000000373405000000000000000               202102040000000000000000000000000296408000000000296408000000000000000000000000000000050000000000  0520210204   01          000                                                                                                                          00                                                         00298 10700060        000063
11110763624000086ALINE VANESSA DA SILVA        RUA PROFESSOR TEODORICO CAVALCANTE      5564181823703217400000000343331 0000000000373406000000000000000               202102040000000000000000000000000296408000000000296408000000000000000000000000000000050000000000  0520210204   01          000                                                                                                                          00                                                         00298 10700060        000064
11094862884000070ALINE VICTORIA LEAO MENEZES   AVENIDA CONSELHEIRO AGUIAR              5102102023703453300000000282308 0000000000373407000000000000000               202102040000000000000000000000000296408000000000296408000000000000000000000000000000050000000000  0520210204   01          000                                                                                                                          00                                                         00298 10700060        000065
11100623684000086ALISON FELIPE MEDEIROS SANTOS RUA NEMESIO PALMEIRAS DE LEMOS                  23707152800000000348856 0000000000373408000000000000000               202102040000000000000000000000000296408000000000296408000000000000000000000000000000050000000000  0520210204   01          000                                                                                                                          00                                                         00298 10700060        000066
11106025174000043ALISON SILVA DE PAULA         RUA DOUTOR HOLMES DO REGO BARROS        5079011023701230000000000132977 0000000000373409000000000000000               202102040000000000000000000000000296408000000000296408000000000000000000000000000000050000000000  0520210204   01          000                                                                                                                          00                                                         00298 10700060        000067
11068923763000047ALISSON ALVES DE ALMEIDA      ESTRADA DO TIP                                  23705302300000000097152 0000000000373410000000000000000               202102040000000000000000000000000296408000000000296408000000000000000000000000000000050000000000  0520210204   01          000                                                                                                                          00                                                         00298 10700060        000068
11096525394000057ALISSON JOSE  DE LIMA PEIXOTO RUA MARECHAL DEODORO                    5203017223701164900000000046000 0000000000373411000000000000000               202102040000000000000000000000000296408000000000296408000000000000000000000000000000050000000000  0520210204   01          000                                                                                                                          00                                                         00298 10700060        000069
11095791344000030ALLAN VINICIUS MARTINS DE BARRPRAÇA SANTA TEREZINHA                   5530500023706037200000000056413 0000000000373412000000000000000               202102040000000000000000000000000296408000000000296408000000000000000000000000000000050000000000  0520210204   01          000                                                                                                                          00                                                         00298 10700060        000070
11112399574000059ALLISSON DEYVSON DE LIMA PEREIAVENIDA HÉLIO FALCÃO                    5102107023700291700000000199982 0000000000373413000000000000000               202102040000000000000000000000000296408000000000296408000000000000000000000000000000050000000000  0520210204   01          000                                                                                                                          00                                                         00298 10700060        000071
11088099984000056ALTAMIR OLIVEIRA DE FIGUEIREDORUA JAPECANGA                           5072013023703190900000004473728 0000000000373414000000000000000               202102040000000000000000000000000296408000000000296408000000000000000000000000000000050000000000  0520210204   01          000                                                                                                                          00                                                         00298 10700060        000072
11085025924000008ALUSKA VEIGA DE FARIAS        RUA ÁLVARO DE ARAÚJO PEREIRA            5840230023700493600000000447544 0000000000373415000000000000000               202102040000000000000000000000000296408000000000296408000000000000000000000000000000050000000000  0520210204   01          000                                                                                                                          00                                                         00298 10700060        000073
11042380393000000ALVARO DANIEL DE CARVALHO     RUA ANA NERY                            5630450023703101100000000938661 0000000000373416000000000000000               202102040000000000000000000000000296408000000000296408000000000000000000000000000000050000000000  0520210204   01          000                                                                                                                          00                                                         00298 10700060        000074
11072608344000055ALVARO MONTEIRO PERAZZO       AVENIDA BERNARDO VIEIRA DE MELO         5441001023706343600000000409316 0000000000373417000000000000000               202102040000000000000000000000000296408000000000296408000000000000000000000000000000050000000000  0520210204   01          000                                                                                                                          00                                                         00298 10700060        000075
11082548014000001ALYSSON CLAYDERMAN ALVES CARNERUA QUARENTA E SEIS                     5344416023700286000000000217697 0000000000373418000000000000000               202102040000000000000000000000000296408000000000296408000000000000000000000000000000050000000000  0520210204   01          000                                                                                                                          00                                                         00298 10700060        000076
11064607604000038AMANDA  CRUZ CANTARELLI       RUA CONDE DE IRAJÁ                      5071031023701055300000000319074 0000000000373419000000000000000               202102040000000000000000000000000296408000000000296408000000000000000000000000000000050000000000  0520210204   01          000                                                                                                                          00                                                         00298 10700060        000077
11070611684000047AMANDA BRAGA SANTOS           RUA DEPUTADO NAPOLEÃO ABDON DA NÓBREGA  5803722523701877500000000613673 0000000000373420000000000000000               202102040000000000000000000000000296408000000000296408000000000000000000000000000000050000000000  0520210204   01          000                                                                                                                          00                                                         00298 10700060        000078
11087427344000079AMANDA CAROLINE  SILVA LINS   RUA DOUTOR METÓDIO MARANHÃO             5091043023706312600000000074721 0000000000373421000000000000000               202102040000000000000000000000000296408000000000296408000000000000000000000000000000050000000000  0520210204   01          000                                                                                                                          00                                                         00298 10700060        000079
11065110624000090AMANDA CHRISTINE DE MATOS GALIRUA DOS PRAZERES                        5007057023702560700000002503883 0000000000373422000000000000000               202102040000000000000000000000000296408000000000296408000000000000000000000000000000050000000000  0520210204   01          000                                                                                                                          00                                                         00298 10700060        000080
11076640864000077AMANDA DE ALMEIDA ARRUDA      RUA SÁ E SOUZA                          5103006523706342800000000135097 0000000000373423000000000000000               202102040000000000000000000000000296408000000000296408000000000000000000000000000000050000000000  0520210204   01          000                                                                                                                          00                                                         00298 10700060        000081
11089811784000045AMANDA DE OLIVEIRA RAMOS SILVARUA CASSILÂNDIA                         5074037023701164900000000057770 0000000000373424000000000000000               202102040000000000000000000000000296408000000000296408000000000000000000000000000000050000000000  0520210204   01          000                                                                                                                          00                                                         00298 10700060        000082
11103140104000008AMANDA EMIGDIO ARRUDA         RUA SANTO ELIAS                         5202009023706343600000001906941 0000000000373425000000000000000               202102040000000000000000000000000296408000000000296408000000000000000000000000000000050000000000  0520210204   01          000                                                                                                                          00                                                         00298 10700060        000083
11075960044000090AMANDA JOICE DO NASCIMENTO    AVENIDA MANGABEIRA                      5336052023702560700000000084425 0000000000373426000000000000000               202102040000000000000000000000000296408000000000296408000000000000000000000000000000050000000000  0520210204   01          000                                                                                                                          00                                                         00298 10700060        000084
11061863324000038AMANDA KAROLINE DE ALMEIDA LIBRODOVIA BR-408                          5472084023705619700000000228923 0000000000373427000000000000000               202102040000000000000000000000000296408000000000296408000000000000000000000000000000050000000000  0520210204   01          000                                                                                                                          00                                                         00298 10700060        000085
11101436124000092AMANDA KENIA BEZERRA ALVES    RUA DA AMIZADE                                  23706343600000000056367 0000000000373428000000000000000               202102040000000000000000000000000296408000000000296408000000000000000000000000000000050000000000  0520210204   01          000                                                                                                                          00                                                         00298 10700060        000086
11093803844000032AMANDA MELO FERNANDES         RUA ENGENHEIRO NORMANDO GOMES DE ARAÚJO 5803712523701104500000000217506 0000000000373429000000000000000               202102040000000000000000000000000296408000000000296408000000000000000000000000000000050000000000  0520210204   01          000                                                                                                                          00                                                         00298 10700060        000087
11097233284000070AMANDA MIRIA LEMOS DE MEDEIROSRUA DOS NAVEGANTES                      5102101023702891600000000169552 0000000000373430000000000000000               202102040000000000000000000000000296408000000000296408000000000000000000000000000000050000000000  0520210204   01          000                                                                                                                          00                                                         00298 10700060        000088
11101532464000099AMANDA OLIVEIRA MAGALHAES     RUA FERREIRA LOPES                      5206023523702518600000000376175 0000000000373431000000000000000               202102040000000000000000000000000296408000000000296408000000000000000000000000000000050000000000  0520210204   01          000                                                                                                                          00                                                         00298 10700060        000089
11054704093000084AMANDA TELES PEIXOTO DE FIGUEIRUA ABEL DE SÁ BEZERRA CAVALCANTI       5205127023703205000000000218421 0000000000373432000000000000000               202102040000000000000000000000000296408000000000296408000000000000000000000000000000050000000000  0520210204   01          000                                                                                                                          00                                                         00298 10700060        000090
11085437434000051AMANDA TORRES CAMPOS          ESTRADA DAS UBÁIAS                      5207001323702518600000000381241 0000000000373433000000000000000               202102040000000000000000000000000296408000000000296408000000000000000000000000000000050000000000  0520210204   01          000                                                                                                                          00                                                         00298 10700060        000091
11107088464000024AMANDA VIEIRA BARBOSA         RUA PAPA JOÃO XXIII                     5841430023702655700000000093742 0000000000373434000000000000000               202102040000000000000000000000000296408000000000296408000000000000000000000000000000050000000000  0520210204   01          000                                                                                                                          00                                                         00298 10700060        000092
11103079244000059AMANNDA MARYLLYA DINIZ SILVA  AVENIDA PROFESSOR ARTUR DE SÁ           5074053523703935700000000152064 0000000000373435000000000000000               202102040000000000000000000000000296408000000000296408000000000000000000000000000000050000000000  0520210204   01          000                                                                                                                          00                                                         00298 10700060        000093
11071528154000029AMYR KELNER                   RUA PROFESSOR AUGUSTO LINS E SILVA      5103003023706253700000000004510 0000000000373436000000000000000               202102040000000000000000000000000296408000000000296408000000000000000000000000000000050000000000  0520210204   01          000                                                                                                                          00                                                         00298 10700060        000094
11048243803000075AMALIA MAPURUNGA ALMEIDA      RUA CORONEL AMÂNCIO CAVALCANTE          6041032823700600900000000278610 0000000000373437000000000000000               202102040000000000000000000000000296408000000000296408000000000000000000000000000000050000000000  0520210204   01          000                                                                                                                          00                                                         00298 10700060        000095
11097154134000055ANA  CLAUDIA  CONRADO DE OLIVERUA ASTRONAUTA NEIL ARMSTRONG           5206017023706090900000000251151 0000000000373438000000000000000               202102040000000000000000000000000296408000000000296408000000000000000000000000000000050000000000  0520210204   01          000                                                                                                                          00                                                         00298 10700060        000096
11092832544000006ANA BEATRIZ DOS SANTOS        RUA ITAPORÃ                             5229165123703201800000000264075 0000000000373439000000000000000               202102040000000000000000000000000296408000000000296408000000000000000000000000000000050000000000  0520210204   01          000                                                                                                                          00                                                         00298 10700060        000097
11112077174000095ANA BEATRIZ LEME DE ANDRADE   RUA VINTE E QUATRO DE JUNHO             5203010023703206900000004757971 0000000000373440000000000000000               202102040000000000000000000000000296408000000000296408000000000000000000000000000000050000000000  0520210204   01          000                                                                                                                          00                                                         00298 10700060        000098
11077151064000002ANA CARLA ALVES DE SOUZA LYRA RUA DEMÓCRITO DE SOUZA FILHO            5061012023701230000000000097098 0000000000373441000000000000000               202102040000000000000000000000000296408000000000296408000000000000000000000000000000050000000000  0520210204   01          000                                                                                                                          00                                                         00298 10700060        000099
11061380514000032ANA CARLA BEZERRA FONTOURA    RUA VINTE E QUATRO                      5344431023701055300000000366684 0000000000373442000000000000000               202102040000000000000000000000000296408000000000296408000000000000000000000000000000050000000000  0520210204   01          000                                                                                                                          00                                                         00298 10700060        000100
11096764834000035ANA CAROLINA  BARRETO ALVES   RUA JOSÉ DE ARIMATÉIA LIMA              5842906523700639400000000525162 0000000000373443000000000000000               202102040000000000000000000000000296408000000000296408000000000000000000000000000000050000000000  0520210204   01          000                                                                                                                          00                                                         00298 10700060        000101
11056823407000036ANA CAROLINA BARREIRA ROSO    RUA MANUEL BRASILIENSE                  2262114023703867900000001661698 0000000000373444000000000000000               202102040000000000000000000000000296408000000000296408000000000000000000000000000000050000000000  0520210204   01          000                                                                                                                          00                                                         00298 10700060        000102
11086614314000092ANA CAROLINA CARIBE DE CARVALHRUA BARÃO DE ITAMARACÁ                  5202007023702560700000000098981 0000000000373445000000000000000               202102040000000000000000000000000296408000000000296408000000000000000000000000000000050000000000  0520210204   01          000                                                                                                                          00                                                         00298 10700060        000103
11107141454000024ANA CAROLINA CAVALCANTE DA SILAVENIDA MANOEL GONÇALVES DA SILVA       5340310023701606300000001039105 0000000000373446000000000000000               202102040000000000000000000000000296408000000000296408000000000000000000000000000000050000000000  0520210204   01          000                                                                                                                          00                                                         00298 10700060        000104
11086834154000014ANA CAROLINA DE MELO MACHADO LAVENIDA VISCONDE DE JEQUITINHONHA       5113002023700291700000000221724 0000000000373447000000000000000               202102040000000000000000000000000296408000000000296408000000000000000000000000000000050000000000  0520210204   01          000                                                                                                                          00                                                         00298 10700060        000105
11087010794000017ANA CAROLINA GOMES SILVA      RUA JOCELYNO ALVES CAMPELO              5515510023703190900000004649397 0000000000373448000000000000000               202102040000000000000000000000000296408000000000296408000000000000000000000000000000050000000000  0520210204   01          000                                                                                                                          00                                                         00298 10700060        000106
11107069034000012ANA CAROLINA LOPES RAMALHO BEZRUA GIACOMO PORTO                       5803211023702301900000000287415 0000000000373449000000000000000               202102040000000000000000000000000296408000000000296408000000000000000000000000000000050000000000  0520210204   01          000                                                                                                                          00                                                         00298 10700060        000107
11034795303000046ANA CAROLINA PIAUILINO SANTOS RUA LINO CORREIA LIMA                   6405006023702120200000000316415 0000000000373450000000000000000               202102040000000000000000000000000296408000000000296408000000000000000000000000000000050000000000  0520210204   01          000                                                                                                                          00                                                         00298 10700060        000108
11053999685000084ANA CAROLINA SOUZA DOS SANTOS AVENIDA GONÇALO ROLEMBERG LEITE                 23702765000000000149292 0000000000373451000000000000000               202102040000000000000000000000000296408000000000296408000000000000000000000000000000050000000000  0520210204   01          000                                                                                                                          00                                                         00298 10700060        000109
11065726794000054ANA CAROLINA TAVARES DE CARVALTRAVESSA JUNDIAÍ                        5079001123700286000000000167118 0000000000373452000000000000000               202102040000000000000000000000000296408000000000296408000000000000000000000000000000050000000000  0520210204   01          000                                                                                                                          00                                                         00298 10700060        000110
11039809063000070ANA CAROLINY DE CASTRO VENANCIRUA AMÁLIA XAVIER DE OLIVEIRA           6304123023700785400000000304093 0000000000373453000000000000000               202102040000000000000000000000000296408000000000296408000000000000000000000000000000050000000000  0520210204   01          000                                                                                                                          00                                                         00298 10700060        000111
11055848314000033ANA CATARINA ANTONINO DE ANDRARUA CONSELHEIRO NABUCO                  5207001023703205000000000166480 0000000000373454000000000000000               202102040000000000000000000000000296408000000000296408000000000000000000000000000000050000000000  0520210204   01          000                                                                                                                          00                                                         00298 10700060        000112
11112552484000075ANA CATARINA MENDES DE SOUZA  RUA TENTATIVA                           5362007523705635900000000473057 0000000000373455000000000000000               202102040000000000000000000000000296408000000000296408000000000000000000000000000000050000000000  0520210204   01          000                                                                                                                          00                                                         00298 10700060        000113
11095940704000098ANA CECILIA ANGELO MATIAS     RUA SÉRGIO SEVERO                       5906338023700321200000001323741 0000000000373456000000000000000               202102040000000000000000000000000296408000000000296408000000000000000000000000000000050000000000  0520210204   01          000                                                                                                                          00                                                         00298 10700060        000114
11101110314000019ANA CERES AGUIAR CARVALHO     ALAMEDA DAS HORTÊNCIAS                  5633276023703045700000000235334 0000000000373457000000000000000               202102040000000000000000000000000296408000000000296408000000000000000000000000000000050000000000  0520210204   01          000                                                                                                                          00                                                         00298 10700060        000115
11093746844000046ANA CLARA CARVALHO DE OLIVEIRARUA DOUTOR AUGUSTO REINALDO SILVA       5072116023703190900000004632567 0000000000373458000000000000000               202102040000000000000000000000000296408000000000296408000000000000000000000000000000050000000000  0520210204   01          000                                                                                                                          00                                                         00298 10700060        000116
11080270334000089ANA CLAUDIA  FARIAS DE ARAUJO RUA HAMILTON RIBEIRO                    5203109023701599700000000065919 0000000000373459000000000000000               202102040000000000000000000000000296408000000000296408000000000000000000000000000000050000000000  0520210204   01          000                                                                                                                          00                                                         00298 10700060        000117
11098652824000029ANA CLAUDIA SILVA DE FRANCA   RUA TAQUARAL                            5423057523700289500000000338842 0000000000373460000000000000000               202102040000000000000000000000000296408000000000296408000000000000000000000000000000050000000000  0520210204   01          000                                                                                                                          00                                                         00298 10700060        000118
11019865783000080ANA CLEA OLIVEIRA NEVES DA LUZRUA ODETE MATOS ALENCAR                 6304025523700714500000000145203 0000000000373461000000000000000               202102040000000000000000000000000296408000000000296408000000000000000000000000000000050000000000  0520210204   01          000                                                                                                                          00                                                         00298 10700060        000119
11101852484000038ANA CRISTINA OLIVEIRA DE ALMEIRUA LUIZ CORREIA DE OLIVEIRA            5570000023701783300000000322830 0000000000373462000000000000000               202102040000000000000000000000000296408000000000296408000000000000000000000000000000050000000000  0520210204   01          000                                                                                                                          00                                                         00298 10700060        000120
11083249814000097ANA IVIDY ANDRADA DINIZ       RUA ANTÔNIO CAMILO DIAS                 5072058523701104500000000712914 0000000000373463000000000000000               202102040000000000000000000000000296408000000000296408000000000000000000000000000000050000000000  0520210204   01          000                                                                                                                          00                                                         00298 10700060        000121
11070779604000004ANA JESSICA PACHECO FERRO CARDRUA CARNEIRO DE MARIZ                   5073021523701055300000000400505 0000000000373464000000000000000               202102040000000000000000000000000296408000000000296408000000000000000000000000000000050000000000  0520210204   01          000                                                                                                                          00                                                         00298 10700060        000122
11075318554000070ANA KAROLINA CARDOSO DE MIRANDAVENIDA DEZESSETE DE AGOSTO             5206154023701783300000000278920 0000000000373465000000000000000               202102040000000000000000000000000296408000000000296408000000000000000000000000000000050000000000  0520210204   01          000                                                                                                                          00                                                         00298 10700060        000123
11106119804000095ANA KAROLINA GAMA DE HOLANDA  RUA GOLFO DA CALIFÓRNIA                 5810210023702301900000000293407 0000000000373466000000000000000               202102040000000000000000000000000296408000000000296408000000000000000000000000000000050000000000  0520210204   01          000                                                                                                                          00                                                         00298 10700060        000124
11098120794000040ANA KAROLLINY SANTOS PAULINO DRUA BULGÁRIA                            5362071723702033800000000308013 0000000000373467000000000000000               202102040000000000000000000000000296408000000000296408000000000000000000000000000000050000000000  0520210204   01          000                                                                                                                          00                                                         00298 10700060        000125
11069097174000057ANA LAURA VILELA DE CARVALHO  RUA PROFESSOR CHAVES BATISTA            5074003023701230000000000493279 0000000000373468000000000000000               202102040000000000000000000000000296408000000000296408000000000000000000000000000000050000000000  0520210204   01          000                                                                                                                          00                                                         00298 10700060        000126
11070202734000008ANA LIVIA SANTOS BARROS       RUA JOSÉ FREIRE MOURA                   5703511023703229800000000097519 0000000000373469000000000000000               202102040000000000000000000000000296408000000000296408000000000000000000000000000000050000000000  0520210204   01          000                                                                                                                          00                                                         00298 10700060        000127
11077218134000092ANA LUIZA SOUZA DE FIGUEIROA  RUA MARIA JÚLIA DOS SANTOS              5703558023701688800000000086363 0000000000373470000000000000000               202102040000000000000000000000000296408000000000296408000000000000000000000000000000050000000000  0520210204   01          000                                                                                                                          00                                                         00298 10700060        000128
11085179174000030ANA LUISA PINTO CABRAL DA NOBRRUA ANTÔNIO DE SOUZA LOPES              5841018023700639400000000635995 0000000000373471000000000000000               202102040000000000000000000000000296408000000000296408000000000000000000000000000000050000000000  0520210204   01          000                                                                                                                          00                                                         00298 10700060        000129
11084141364000094ANA MARIA IPOLITO BARROS      RUA ERONILDES MATIAS DOS SANTOS         5646000023706041000000000100080 0000000000373472000000000000000               202102040000000000000000000000000296408000000000296408000000000000000000000000000000050000000000  0520210204   01          000                                                                                                                          00                                                         00298 10700060        000130
11089207814000060ANA OLIVIA  DE OLIVEIRA MARINHRUA DOS NAVEGANTES                      5102001023701232700000000058092 0000000000373473000000000000000               202102040000000000000000000000000296408000000000296408000000000000000000000000000000050000000000  0520210204   01          000                                                                                                                          00                                                         00298 10700060        000131
11991741623000049ANA PAULA RODRIGUES MATOS     RUA DOS TORORÓS                         5905455023702134200000000413267 0000000000373474000000000000000               202102040000000000000000000000000296408000000000296408000000000000000000000000000000050000000000  0520210204   01          000                                                                                                                          00                                                         00298 10700060        000132
11276960814000020ANA VIVIANE SANTANA DA SILVA  RUA ANTÔNIO FERREIRA CAMPOS             5443005023701232700000000773166 0000000000373475000000000000000               202102040000000000000000000000000296408000000000296408000000000000000000000000000000050000000000  0520210204   01          000                                                                                                                          00                                                         00298 10700060        000133
11076679384000023ANABEL DA SILVA LIMA          RUA FRANCISCO ADELINO DE MELO           5843062023702655700000000067490 0000000000373476000000000000000               202102040000000000000000000000000296408000000000296408000000000000000000000000000000050000000000  0520210204   01          000                                                                                                                          00                                                         00298 10700060        000134
11017184863000024ANALU BITU LEAL ALENCAR       RUA SENADOR CARLOS JEREISSATI           6312504023700771400000000304212 0000000000373477000000000000000               202102040000000000000000000000000296408000000000296408000000000000000000000000000000050000000000  0520210204   01          000                                                                                                                          00                                                         00298 10700060        000135
11093808204000037ANDERSON  ALARES DA SILVA MELORUA JOÃO UZÊDA LUNA                     5211131023703190900000000301124 0000000000373478000000000000000               202102040000000000000000000000000296408000000000296408000000000000000000000000000000050000000000  0520210204   01          000                                                                                                                          00                                                         00298 10700060        000136
11530772292000034ANDERSON ANDRE PANTOJA DIAS   RUA LARGA DO FEITOSA                    5203014023701230000000000099384 0000000000373479000000000000000               202102040000000000000000000000000296408000000000296408000000000000000000000000000000050000000000  0520210204   01          000                                                                                                                          00                                                         00298 10700060        000137
11074546734000022ANDERSON DOUGLAS SOUZA ARAGAO RUA ESTÁCIO COIMBRA                     5201007023705776200000002001942 0000000000373480000000000000000               202102040000000000000000000000000296408000000000296408000000000000000000000000000000050000000000  0520210204   01          000                                                                                                                          00                                                         00298 10700060        000138
11089788954000017ANDERSON JUNIOR SILVA LOPES   RUA DOM HELDER CÂMARA                   5575000023700286000000000167126 0000000000373481000000000000000               202102040000000000000000000000000296408000000000296408000000000000000000000000000000050000000000  0520210204   01          000                                                                                                                          00                                                         00298 10700060        000139
11793525962000034ANDERSON LOPES DE  OLIVEIRA   RUA MACEIÓ                              6905701023700522300000000667838 0000000000373482000000000000000               202102040000000000000000000000000296408000000000296408000000000000000000000000000000050000000000  0520210204   01          000                                                                                                                          00                                                         00298 10700060        000140
11039602784000097ANDESSON CARLOS DA SILVA FERNARUA FRANCISCO DA CUNHA                  5102004123706249900000000012815 0000000000373483000000000000000               202102040000000000000000000000000296408000000000296408000000000000000000000000000000050000000000  0520210204   01          000                                                                                                                          00                                                         00298 10700060        000141
11068412094000019ANDRE  CARNEIRO CUNHA         RUA J. A. DA SILVEIRA                   5061003023706342800000000040096 0000000000373484000000000000000               202102040000000000000000000000000296408000000000296408000000000000000000000000000000050000000000  0520210204   01          000                                                                                                                          00                                                         00298 10700060        000142
11086167814000012ANDREIA ALVES MONTEIRO        TRAVESSA SERRA DO ARAGUAIA              5912701323700321200000001994590 0000000000373485000000000000000               202102040000000000000000000000000296408000000000296408000000000000000000000000000000050000000000  0520210204   01          000                                                                                                                          00                                                         00298 10700060        000143
11106418774000098ANDREIA APARECIDA DA SILVA    RUA JOSÉ PEREIRA DE LIMA                5570000023701784100000000192562 0000000000373486000000000000000               202102040000000000000000000000000296408000000000296408000000000000000000000000000000050000000000  0520210204   01          000                                                                                                                          00                                                         00298 10700060        000144
11140597577000064ANDRESA COLOIA DOS SANTOS     RUA CAPITÃO MÉDICO OSIAS RIBEIRO        5446001523701232700000000879096 0000000000373487000000000000000               202102040000000000000000000000000296408000000000296408000000000000000000000000000000050000000000  0520210204   01          000                                                                                                                          00                                                         00298 10700060        000145
11701704924000019ANDRESA RENATA ALVES SA       RUA DOUTOR JOSÉ ALBERTO MAIA            5117061023706342800000000151912 0000000000373488000000000000000               202102040000000000000000000000000296408000000000296408000000000000000000000000000000050000000000  0520210204   01          000                                                                                                                          00                                                         00298 10700060        000146
11073956834000055ANDRESSA  ALBUQUERQUE DA SILVARUA BLUMENAU                            5135019023703453300000000328170 0000000000373489000000000000000               202102040000000000000000000000000296408000000000296408000000000000000000000000000000050000000000  0520210204   01          000                                                                                                                          00                                                         00298 10700060        000147
11084085634000024ANDRESSA  DE FARIAS ALVES     RUA DOM ESTEVÃO BRIOSO                  5102143023703210700000000135291 0000000000373490000000000000000               202102040000000000000000000000000296408000000000296408000000000000000000000000000000050000000000  0520210204   01          000                                                                                                                          00                                                         00298 10700060        000148
11076645874000017ANDRESSA CAROLINE BURGOS GOMESRUA DOUTOR VIRGÍNIO MARQUES             5073133023701055300000000366749 0000000000373491000000000000000               202102040000000000000000000000000296408000000000296408000000000000000000000000000000050000000000  0520210204   01          000                                                                                                                          00                                                         00298 10700060        000149
11055027073000069ANDRESSA DANIELA DE SOUSA     QUADRA PARQUE PIAUÍ                     6402529023700405700000000440728 0000000000373492000000000000000               202102040000000000000000000000000296408000000000296408000000000000000000000000000000050000000000  0520210204   01          000                                                                                                                          00                                                         00298 10700060        000150
11085244294000070ANDRESSA MACHADO DA SILVA     AVENIDA DEPUTADO ALUÍSIO SOUTO PINTO    5529613023703212300000000470201 0000000000373493000000000000000               202102040000000000000000000000000296408000000000296408000000000000000000000000000000050000000000  0520210204   01          000                                                                                                                          00                                                         00298 10700060        000151
11045746863000075ANDRESSA OHANA REIS BANDEIRA  RUA MAJOR ARMANDO DE SOUZA MELO         5103018023706344400000000081639 0000000000373494000000000000000               202102040000000000000000000000000296408000000000296408000000000000000000000000000000050000000000  0520210204   01          000                                                                                                                          00                                                         00298 10700060        000152
11098316084000088ANDREY FREITAS DUARTE         RUA ROSA DE LIMA                        5906566023705882300000000152501 0000000000373495000000000000000               202102040000000000000000000000000296408000000000296408000000000000000000000000000000050000000000  0520210204   01          000                                                                                                                          00                                                         00298 10700060        000153
11101477374000019ANDREY LUCAS VIEIRA RODRIGUES RUA CONDE DE IRAJÁ                      5071031023701230000000000099368 0000000000373496000000000000000               202102040000000000000000000000000296408000000000296408000000000000000000000000000000050000000000  0520210204   01          000                                                                                                                          00                                                         00298 10700060        000154
11097341434000009ANDREZA CABRAL DA SILVA       AVENIDA UM                              5410042523705635900000000473634 0000000000373497000000000000000               202102040000000000000000000000000296408000000000296408000000000000000000000000000000050000000000  0520210204   01          000                                                                                                                          00                                                         00298 10700060        000155
11073900864000016ANDREZA CRISTINA VELEZ SILVA  RUA AURORA DINIZ CARNEIRO LEÃO          5444007223705639100000000235598 0000000000373498000000000000000               202102040000000000000000000000000296408000000000296408000000000000000000000000000000050000000000  0520210204   01          000                                                                                                                          00                                                         00298 10700060        000156
11065497274000056ANDREZA DE FARIAS CALADO      RUA ISMAEL PEREIRA DA SILVA             5908200023702821500000000333093 0000000000373499000000000000000               202102040000000000000000000000000296408000000000296408000000000000000000000000000000050000000000  0520210204   01          000                                                                                                                          00                                                         00298 10700060        000157
11083311474000030ANDREZA MAYA FIGUEREDO        AVENIDA MARECHAL HERMES DA FONSECA      5632163023703101100000000936219 0000000000373500000000000000000               202102040000000000000000000000000296408000000000296408000000000000000000000000000000050000000000  0520210204   01          000                                                                                                                          00                                                         00298 10700060        000158
11055695355000000ANDRIELE KALINE SILVA         RUA ENGENHO TERRA VERMELHA              5127067023703453300000000073733 0000000000373501000000000000000               202102040000000000000000000000000296408000000000296408000000000000000000000000000000050000000000  0520210204   01          000                                                                                                                          00                                                         00298 10700060        000159
11024897745000081ANDRE  RIBEIRO DA SILVA       RUA DAS ARARAS                          4172001023701720500000000514284 0000000000373502000000000000000               202102040000000000000000000000000296408000000000296408000000000000000000000000000000050000000000  0520210204   01          000                                                                                                                          00                                                         00298 10700060        000160
11020148833000078ANDRE CANCIO DE OLIVEIRA AMORIRUA SOLON PINHEIRO                      6005004123701234300000000825352 0000000000373503000000000000000               202102040000000000000000000000000296408000000000296408000000000000000000000000000000050000000000  0520210204   01          000                                                                                                                          00                                                         00298 10700060        000161
11089731274000003ANDRE FELIPE DA SILVA MACEDO  RUA ALCINA COELHO DE CARVALHO           5313040023701599700000002047233 0000000000373504000000000000000               202102040000000000000000000000000296408000000000296408000000000000000000000000000000050000000000  0520210204   01          000                                                                                                                          00                                                         00298 10700060        000162
11075744374000059ANDRE FELIPE DO NASCIMENTO SEAAVENIDA HÉLIO FALCÃO                    5102107023701687000000000009474 0000000000373505000000000000000               202102040000000000000000000000000296408000000000296408000000000000000000000000000000050000000000  0520210204   01          000                                                                                                                          00                                                         00298 10700060        000163
11111692594000005ANDRE LUIZ DA SILVA MELO MOURARUA DA SIMPATIA                         5630444023703101100000000927007 0000000000373506000000000000000               202102040000000000000000000000000296408000000000296408000000000000000000000000000000050000000000  0520210204   01          000                                                                                                                          00                                                         00298 10700060        000164
11045099424000043ANDRE LUIZ DE SOUSA LIMA      RUA DO ESPINHEIRO                       5202021323700289500000001606905 0000000000373507000000000000000               202102040000000000000000000000000296408000000000296408000000000000000000000000000000050000000000  0520210204   01          000                                                                                                                          00                                                         00298 10700060        000165
11089811534000050ANDRE LUIS BIONE DOS ANJOS    RUA PROFESSOR AGEU MAGALHÃES            5206026023701230000000001507958 0000000000373508000000000000000               202102040000000000000000000000000296408000000000296408000000000000000000000000000000050000000000  0520210204   01          000                                                                                                                          00                                                         00298 10700060        000166
11090343174000020ANDRE MAXIMIANO DIAS DE AZEVEDRUA ROSENDO GOMES DA ROCHA              5475371023705639100000000590010 0000000000373509000000000000000               202102040000000000000000000000000296408000000000296408000000000000000000000000000000050000000000  0520210204   01          000                                                                                                                          00                                                         00298 10700060        000167
11096758184000025ANDREA MARGOLIS               RUA DO FUTURO                           5205000523706249900000003812910 0000000000373510000000000000000               202102040000000000000000000000000296408000000000296408000000000000000000000000000000050000000000  0520210204   01          000                                                                                                                          00                                                         00298 10700060        000168
11082753084000061ANDSSON DIONISIO DE SOUZA     Rua João Fernandes Vieira               5005024523706342800000000098795 0000000000373511000000000000000               202102040000000000000000000000000296408000000000296408000000000000000000000000000000050000000000  0520210204   01          000                                                                                                                          00                                                         00298 10700060        000169
11117972834000030ANDYARA TEIXEIRA CAVALCANTI   RUA DILERMANO REIS / SANTA LÚCIA                23703902000000000084921 0000000000373512000000000000000               202102040000000000000000000000000296408000000000296408000000000000000000000000000000050000000000  0520210204   01          000                                                                                                                          00                                                         00298 10700060        000170
11092208514000058ANGELICA LOPES FRADE          RUA DOUTOR GASTÃO DA SILVEIRA           5073122523705619700000000227692 0000000000373513000000000000000               202102040000000000000000000000000296408000000000296408000000000000000000000000000000050000000000  0520210204   01          000                                                                                                                          00                                                         00298 10700060        000171
11014427544000094ANGELO TELES DE CARVALHO FILHOAVENIDA VISCONDE DE JEQUITINHONHA       5103002023706344400000000046671 0000000000373514000000000000000               202102040000000000000000000000000296408000000000296408000000000000000000000000000000050000000000  0520210204   01          000                                                                                                                          00                                                         00298 10700060        000172
11070896483000046ANGLIA MARIA DE SOUSA LEITE BIAVENIDA GENERAL NEWTON CAVALCANTE               23701230000000000491950 0000000000373515000000000000000               202102040000000000000000000000000296408000000000296408000000000000000000000000000000050000000000  0520210204   01          000                                                                                                                          00                                                         00298 10700060        000173
11096301434000002ANNA CAROLINA  DE CASTRO ARAUJRUA FÉLIX DE BRITO MELO                 5102026023700291700000000144878 0000000000373516000000000000000               202102040000000000000000000000000296408000000000296408000000000000000000000000000000050000000000  0520210204   01          000                                                                                                                          00                                                         00298 10700060        000174
11108335714000000ANNA DANIELLY ALMEIDA DO NASCIRUA JOAQUIM VILELA                      5538000023706991400000000029726 0000000000373517000000000000000               202102040000000000000000000000000296408000000000296408000000000000000000000000000000050000000000  0520210204   01          000                                                                                                                          00                                                         00298 10700060        000175
11101179354000076ANNA LUISA FRANCO DE AQUINO   AVENIDA BOA VIAGEM                      5103000023706342800000003101207 0000000000373518000000000000000               202102040000000000000000000000000296408000000000296408000000000000000000000000000000050000000000  0520210204   01          000                                                                                                                          00                                                         00298 10700060        000176
11094828714000048ANNAYZA PRISCILLA DE MORAES VERUA PROFESSORA MARIA DE LOURDES BRASILEI5529237023703212300000000582298 0000000000373519000000000000000               202102040000000000000000000000000296408000000000296408000000000000000000000000000000050000000000  0520210204   01          000                                                                                                                          00                                                         00298 10700060        000177
11101552164000090ANNE CAROLINE CAVALCANTI DA SIRUA PADRE JOSÉ DE ANCHIETA              5323031023701599700000000622990 0000000000373520000000000000000               202102040000000000000000000000000296408000000000296408000000000000000000000000000000050000000000  0520210204   01          000                                                                                                                          00                                                         00298 10700060        000178
11083340474000010ANNE CHRISTINE CARDOSO MORENO RUA AUGUSTO DOS ANJOS                   5529779023706327400000003029379 0000000000373521000000000000000               202102040000000000000000000000000296408000000000296408000000000000000000000000000000050000000000  0520210204   01          000                                                                                                                          00                                                         00298 10700060        000179
11091445924000042ANNE KAROLINE DE HOLANDA CAVALRUA J. A. DA SILVEIRA                   5061003023702322100000002604930 0000000000373522000000000000000               202102040000000000000000000000000296408000000000296408000000000000000000000000000000050000000000  0520210204   01          000                                                                                                                          00                                                         00298 10700060        000180
11091266214000001ANNELY EMILIA DA CONCEICAO    RUA OLÍVIA MENELAU                      5117011023700289500000003017915 0000000000373523000000000000000               202102040000000000000000000000000296408000000000296408000000000000000000000000000000050000000000  0520210204   01          000                                                                                                                          00                                                         00298 10700060        000181
11096829444000081ANNY KALYNNE PEREIRA DE MELO  RUA FRANCISCO QUEIROGA DE ALENCAR       5843353523706342800000000134651 0000000000373524000000000000000               202102040000000000000000000000000296408000000000296408000000000000000000000000000000050000000000  0520210204   01          000                                                                                                                          00                                                         00298 10700060        000182
11045315543000002ANTHONY MOREIRA GOMES         TRAVESSA ASSARÉ                         6311353023700454500000000093793 0000000000373525000000000000000               202102040000000000000000000000000296408000000000296408000000000000000000000000000000050000000000  0520210204   01          000                                                                                                                          00                                                         00298 10700060        000183
11007381533000003ANTONIA LARYSSA DE MOURA LAVORRUA DA INDEPENDÊNCIA                    6460764523700937700000000563250 0000000000373526000000000000000               202102040000000000000000000000000296408000000000296408000000000000000000000000000000050000000000  0520210204   01          000                                                                                                                          00                                                         00298 10700060        000184
11024980383000061ANTONIO CARLOS COSTA E SILVA NRua do Futuro                           5205000523700682300000000346624 0000000000373527000000000000000               202102040000000000000000000000000296408000000000296408000000000000000000000000000000050000000000  0520210204   01          000                                                                                                                          00                                                         00298 10700060        000185
11062336384000045ANTONIO CARLOS ESCOREL DE ALMEAVENIDA DEZESSETE DE AGOSTO             5206048523702518600000000316407 0000000000373528000000000000000               202102040000000000000000000000000296408000000000296408000000000000000000000000000000050000000000  0520210204   01          000                                                                                                                          00                                                         00298 10700060        000186
11059226564000014ANTONIO FRANCISCO  DE ARAUJO NRUA DESEMBARGADOR TOMAZ ANTÔNIO GUIMARÃE5313058023706298700000004546865 0000000000373529000000000000000               202102040000000000000000000000000296408000000000296408000000000000000000000000000000050000000000  0520210204   01          000                                                                                                                          00                                                         00298 10700060        000187
11102466414000079ANTONIO LUCAS FERREIRA FEITOSARUA JEQUITIBÁ                           5707406023703902000000000100951 0000000000373530000000000000000               202102040000000000000000000000000296408000000000296408000000000000000000000000000000050000000000  0520210204   01          000                                                                                                                          00                                                         00298 10700060        000188
11071283034000005ANTONIO LUIZ MENEZES CARNEIRO RUA ANA CAMELO DA SILVA                 5111104023706249900000000045829 0000000000373531000000000000000               202102040000000000000000000000000296408000000000296408000000000000000000000000000000050000000000  0520210204   01          000                                                                                                                          00                                                         00298 10700060        000189
11704205302000082ANTONIO OLIVEIRA DE ARAUJO    AVENIDA MÁRIO YPIRANGA                  6905700123703715000000000090948 0000000000373532000000000000000               202102040000000000000000000000000296408000000000296408000000000000000000000000000000050000000000  0520210204   01          000                                                                                                                          00                                                         00298 10700060        000190
11025209342000098ANTONIO SAVIO INACIO          RUA ALMIR PEDREIRAS                     6906333023705041500000000006920 0000000000373533000000000000000               202102040000000000000000000000000296408000000000296408000000000000000000000000000000050000000000  0520210204   01          000                                                                                                                          00                                                         00298 10700060        000191
11035314034000019ANTUNIELE SILVA SANTOS        CONDOMÍNIO MORADA NOVA                          23706342800000000134554 0000000000373534000000000000000               202102040000000000000000000000000296408000000000296408000000000000000000000000000000050000000000  0520210204   01          000                                                                                                                          00                                                         00298 10700060        000192
11060808134000059ANTONIO RAIMUNDO DUARTE DE SA RUA JOSITA ALMEIDA                      5804649023701729900000000564656 0000000000373535000000000000000               202102040000000000000000000000000296408000000000296408000000000000000000000000000000050000000000  0520210204   01          000                                                                                                                          00                                                         00298 10700060        000193
11077851314000090ANYELLE SOUSA SILVA           RUA DOUTOR ANICETO VAREJÃO              5442031023706342800000000135429 0000000000373536000000000000000               202102040000000000000000000000000296408000000000296408000000000000000000000000000000050000000000  0520210204   01          000                                                                                                                          00                                                         00298 10700060        000194
11062817444000062ARIANA  SILVA FERREIRA        RUA DEMÓCRITO DE SOUZA FILHO            5061012023700290900000000760773 0000000000373537000000000000000               202102040000000000000000000000000296408000000000296408000000000000000000000000000000050000000000  0520210204   01          000                                                                                                                          00                                                         00298 10700060        000195
11064676815000084ARIANA SILVA RIBEIRO          RUA VENERÁVEL VALDOMIRO TEÓFILO DOS SANT4910000023702765000000000127302 0000000000373538000000000000000               202102040000000000000000000000000296408000000000296408000000000000000000000000000000050000000000  0520210204   01          000                                                                                                                          00                                                         00298 10700060        000196
11104387324000048ARIELE PINHEIRO DA SILVEIRA MORUA VINTE E TRÊS                        5344432023705635900000000446068 0000000000373539000000000000000               202102040000000000000000000000000296408000000000296408000000000000000000000000000000050000000000  0520210204   01          000                                                                                                                          00                                                         00298 10700060        000197
11338055878000080ARIZLA EMILAINY MAIA DOS SANTORUA PROFESSORA CARMEN MOREIRA COUTINHO  5805249023705774600000000077909 0000000000373540000000000000000               202102040000000000000000000000000296408000000000296408000000000000000000000000000000050000000000  0520210204   01          000                                                                                                                          00                                                         00298 10700060        000198
11069124444000082ARLINDO UGULINO NETTO         Praça Vilagran Cabrita                  5802547023702301900000000239674 0000000000373541000000000000000               202102040000000000000000000000000296408000000000296408000000000000000000000000000000050000000000  0520210204   01          000                                                                                                                          00                                                         00298 10700060        000199
