0001271012011430018000140PERNAMBUCO SECRETARIA DE SAUDE          201000010000020210209102022                                                                                                                                                                                                                                                                                                                                                                                                                  000001
11058078394000047FERNANDA KURY DIAS MARTINS    RUA TENENTE JOÃO CÍCERO                 5102019023705639100000001101935 0000000000388811000000000000000               202007070000000000000000000000000296408000000000296408000000000000000000000000000000050000000000  0520200707   01          000                                                                                                                          00                                                         00298 10700060        000002
11022820795000090THAYANE CUNHA DE MENEZES      AVENIDA JOSINO JOSÉ DE ALMEIDA          4903000023703164000000000122130 0000000000388812000000000000000               202007070000000000000000000000000296408000000000296408000000000000000000000000000000050000000000  0520200707   01          000                                                                                                                          00                                                         00298 10700060        000003
11096422914000052MELISSA CANDIDA CORREIA DA SILRUA CANHOTO DA PARAIBA                  5344151023706298700000000107468 0000000000388813000000000000000               202007070000000000000000000000000296408000000000296408000000000000000000000000000000050000000000  0520200707   01          000                                                                                                                          00                                                         00298 10700060        000004
11079988004000037ISIS JACO BATISTA BORGES VIANAAVENIDA CARDOSO DE SÁ                   5632802023703101100000000421162 0000000000388814000000000000000               202007070000000000000000000000000296408000000000296408000000000000000000000000000000050000000000  0520200707   01          000                                                                                                                          00                                                         00298 10700060        000005
11068888634000050REBECCA  MEDEIROS RAFAEL      RUA MAMANGUAPE                          5102025023700291700000000144746 0000000000388815000000000000000               202007070000000000000000000000000296408000000000296408000000000000000000000000000000050000000000  0520200707   01          000                                                                                                                          00                                                         00298 10700060        000006
11111315824000070JOELMA  SILVA DE ANDRADE      SITIO EMBEBEDADO                        5576000023706345200000000149411 0000000000388816000000000000000               202007070000000000000000000000000296408000000000296408000000000000000000000000000000050000000000  0520200707   01          000                                                                                                                          00                                                         00298 10700060        000007
11920366603000063JULIANA MACHADO DUARTE BARRETORUA ARNOLDO MAGALHÃES                   5205128023706298700000000108642 0000000000388817000000000000000               202007070000000000000000000000000296408000000000296408000000000000000000000000000000050000000000  0520200707   01          000                                                                                                                          00                                                         00298 10700060        000008
11087210896000012PABLO AUGUSTO COELHO COSTA    RUA HERLÂNIO DE PAULO MENESCAL          6204420023700458800000000501603 0000000000388818000000000000000               202007070000000000000000000000000296408000000000296408000000000000000000000000000000050000000000  0520200707   01          000                                                                                                                          00                                                         00298 10700060        000009
11112552484000075ANA CATARINA MENDES DE SOUZA  RUA TENTATIVA                           5362007523705635900000000473057 0000000000388819000000000000000               202007070000000000000000000000000296408000000000296408000000000000000000000000000000050000000000  0520200707   01          000                                                                                                                          00                                                         00298 10700060        000010
11029309663000051LUANA COSTA OLIVEIRA BRAGA    RUA BOA ESPERANÇA                               23703788500000000360716 0000000000388820000000000000000               202007070000000000000000000000000296408000000000296408000000000000000000000000000000050000000000  0520200707   01          000                                                                                                                          00                                                         00298 10700060        000011
11075744374000059ANDRE FELIPE DO NASCIMENTO SEAAVENIDA HÉLIO FALCÃO                    5102107023701687000000000009474 0000000000388821000000000000000               202007070000000000000000000000000296408000000000296408000000000000000000000000000000050000000000  0520200707   01          000                                                                                                                          00                                                         00298 10700060        000012
11530772292000034ANDERSON ANDRE PANTOJA DIAS   RUA LARGA DO FEITOSA                    5203014023701230000000000099384 0000000000388822000000000000000               202007070000000000000000000000000296408000000000296408000000000000000000000000000000050000000000  0520200707   01          000                                                                                                                          00                                                         00298 10700060        000013
11107121904000090BRUNA KAMILA HENRIQUE BARRA NORUA ANTÔNIO MARÇAL FILHO                5535000023703212300000000504424 0000000000388823000000000000000               202007070000000000000000000000000296408000000000296408000000000000000000000000000000050000000000  0520200707   01          000                                                                                                                          00                                                         00298 10700060        000014
11089639544000080AILA MAIARA ALBUQUERQUE       RUA PRESIDENTE COSTA E SILVA            5841660023706342800000000098264 0000000000388824000000000000000               202007070000000000000000000000000296408000000000296408000000000000000000000000000000050000000000  0520200707   01          000                                                                                                                          00                                                         00298 10700060        000015
11107712594000017KATIENE DA SILVA MELO         RUA TRÊS COHAB                          5536000023705923400000000046531 0000000000388825000000000000000               202007070000000000000000000000000296408000000000296408000000000000000000000000000000050000000000  0520200707   01          000                                                                                                                          00                                                         00298 10700060        000016
11017981523000071ADNA KAMILLA  MARTINS DE ALENCAVENIDA AILTON GOMES                    6302000023700456100000000327107 0000000000388826000000000000000               202007070000000000000000000000000296408000000000296408000000000000000000000000000000050000000000  0520200707   01          000                                                                                                                          00                                                         00298 10700060        000017
11088117044000056JUDSON JOSE LINO DA SILVEIRA  AVENIDA MARIA LACERDA MONTENEGRO        5915260023707151000000000241725 0000000000388827000000000000000               202007070000000000000000000000000296408000000000296408000000000000000000000000000000050000000000  0520200707   01          000                                                                                                                          00                                                         00298 10700060        000018
11096898014000073FLAVIA TOME CAVALCANTE        RUA ETELVINA MACEDO DE MENDONÇA         5804053023706343600000000058424 0000000000388828000000000000000               202007070000000000000000000000000296408000000000296408000000000000000000000000000000050000000000  0520200707   01          000                                                                                                                          00                                                         00298 10700060        000019
11088786814000023CLARISSA DA COSTA LIMA BARRETORUA DOM JOSÉ LOPES                      5102137023703453300000000501034 0000000000388829000000000000000               202007070000000000000000000000000296408000000000296408000000000000000000000000000000050000000000  0520200707   01          000                                                                                                                          00                                                         00298 10700060        000020
11097112984000030EDUARDO VINICIUS SILVA DOS SANRUA JOSE ALBERTO DE LIMA                5575000023700835400000000235342 0000000000388830000000000000000               202007070000000000000000000000000296408000000000296408000000000000000000000000000000050000000000  0520200707   01          000                                                                                                                          00                                                         00298 10700060        000021
11006713413000008NATALIA FREITAS FRANCELINO DIARUA ANÚSIA ROLIM                        6310325523700771400000000252409 0000000000388831000000000000000               202007070000000000000000000000000296408000000000296408000000000000000000000000000000050000000000  0520200707   01          000                                                                                                                          00                                                         00298 10700060        000022
11005250950000080CAROLINA MENEGUSSO XAVIER     RUA PASTOR JOSÉ AMARO DA SILVA          5102123023702322100000000115169 0000000000388832000000000000000               202007070000000000000000000000000296408000000000296408000000000000000000000000000000050000000000  0520200707   01          000                                                                                                                          00                                                         00298 10700060        000023
11089788954000017ANDERSON JUNIOR SILVA LOPES   RUA DOM HELDER CÂMARA                   5575000023700286000000000167126 0000000000388833000000000000000               202007070000000000000000000000000296408000000000296408000000000000000000000000000000050000000000  0520200707   01          000                                                                                                                          00                                                         00298 10700060        000024
11059156213000084AGEU DE OLIVERA SARAIVA       RUA DOM MELO                            6310107523700454500000003500020 0000000000388834000000000000000               202007070000000000000000000000000296408000000000296408000000000000000000000000000000050000000000  0520200707   01          000                                                                                                                          00                                                         00298 10700060        000025
11100415904000081THAIS CAROLLYNE DE FARIAS SILVRUA C                                           23701783300000000277460 0000000000388835000000000000000               202007070000000000000000000000000296408000000000296408000000000000000000000000000000050000000000  0520200707   01          000                                                                                                                          00                                                         00298 10700060        000026
11102855654000035RENATO  BARBOSA MACEDO DO NASCRUA IRMÃ MARIA DAVID                    5206107023706343600000000410934 0000000000388836000000000000000               202007070000000000000000000000000296408000000000296408000000000000000000000000000000050000000000  0520200707   01          000                                                                                                                          00                                                         00298 10700060        000027
11046071113000009MAGELA TEODORIO MELO FERNANDESRUA PADRE RODRIGUES CAMPELO             5073064023703935700000000130818 0000000000388837000000000000000               202007070000000000000000000000000296408000000000296408000000000000000000000000000000050000000000  0520200707   01          000                                                                                                                          00                                                         00298 10700060        000028
11011118833000043MAIRTON AMORA PINHEIRO BOSFORDAVENIDA SANTOS DUMONT                   5205050023706343600000000032735 0000000000388838000000000000000               202007070000000000000000000000000296408000000000296408000000000000000000000000000000050000000000  0520200707   01          000                                                                                                                          00                                                         00298 10700060        000029
11100973714000075NATALIA KATARINA NERIS NASCIMERUA JÚLIO RAMOS                         5212017023706342800000000133868 0000000000388839000000000000000               202007070000000000000000000000000296408000000000296408000000000000000000000000000000050000000000  0520200707   01          000                                                                                                                          00                                                         00298 10700060        000030
11068347514000024MATHEUS FERNANDES ARAUJO DE ALRUA DOUTOR JOSÉ MARIA                   5204100023702322100000000115207 0000000000388840000000000000000               202007070000000000000000000000000296408000000000296408000000000000000000000000000000050000000000  0520200707   01          000                                                                                                                          00                                                         00298 10700060        000031
11054928554000076MARIA CLARA ROMAO CECILIO     RUA DA AMIZADE                          5201126023702992000000000292931 0000000000388841000000000000000               202007070000000000000000000000000296408000000000296408000000000000000000000000000000050000000000  0520200707   01          000                                                                                                                          00                                                         00298 10700060        000032
11063846854000000CAROLINA RAMOS DE OLIVEIRA    RUA FRANCISCO CLAUDINO PEREIRA          5803843023701164900000000057916 0000000000388842000000000000000               202007070000000000000000000000000296408000000000296408000000000000000000000000000000050000000000  0520200707   01          000                                                                                                                          00                                                         00298 10700060        000033
11080873824000004HERICKSSEN GUSTAVO DE MEDEIROSRUA CASTRO ALVES                        5422007023700290900000000064998 0000000000388843000000000000000               202007070000000000000000000000000296408000000000296408000000000000000000000000000000050000000000  0520200707   01          000                                                                                                                          00                                                         00298 10700060        000034
11017553064000058RODOLFO VINICIUS LEITE CELERINRUA DESEMBARGADOR ARQUIMEDES SOUTO MAIOR5840115023701285800000000227773 0000000000388844000000000000000               202007070000000000000000000000000296408000000000296408000000000000000000000000000000050000000000  0520200707   01          000                                                                                                                          00                                                         00298 10700060        000035
11094374894000016NATALIA BARBOSA LINS CAVALCANTAVENIDA CONSELHEIRO ROSA E SILVA        5202022023706343600000000033669 0000000000388845000000000000000               202007070000000000000000000000000296408000000000296408000000000000000000000000000000050000000000  0520200707   01          000                                                                                                                          00                                                         00298 10700060        000036
11022160373000054RAFAEL AZEVEDO TEIXEIRA CALDASAVENIDA BERNARDO VIEIRA DE MELO         5447010023705619700000000239763 0000000000388846000000000000000               202007070000000000000000000000000296408000000000296408000000000000000000000000000000050000000000  0520200707   01          000                                                                                                                          00                                                         00298 10700060        000037
11014940324000006JOSE IGOR DA SILVA BATISTA    RUA CAPITÃO AURÉLIO DE ARAÚJO           5073123023700586000000000087033 0000000000388847000000000000000               202007070000000000000000000000000296408000000000296408000000000000000000000000000000050000000000  0520200707   01          000                                                                                                                          00                                                         00298 10700060        000038
11101439724000030ARTUR FREIRE SOARES           RUA ANTÔNIO FALCÃO                      5102024023702300000000000111937 0000000000388848000000000000000               202007070000000000000000000000000296408000000000296408000000000000000000000000000000050000000000  0520200707   01          000                                                                                                                          00                                                         00298 10700060        000039
11103226864000066TAIS GALDENCIO DO NASCIMENTO  RUA DA NATIVIDADE                       5357012023701055300000000366706 0000000000388849000000000000000               202007070000000000000000000000000296408000000000296408000000000000000000000000000000050000000000  0520200707   01          000                                                                                                                          00                                                         00298 10700060        000040
11600382013000064LUCAS BRAGA ARANHA            RUA JOSÉ BARRETO PARENTE                6081116023700769200000000370673 0000000000388850000000000000000               202007070000000000000000000000000296408000000000296408000000000000000000000000000000050000000000  0520200707   01          000                                                                                                                          00                                                         00298 10700060        000041
11014207514000009SAMARA CAMPOS MENDES SILVA    RUA VEREADOR PEDRO PAULO DE ALMEIDA     5803102023703454100000000003824 0000000000388851000000000000000               202007070000000000000000000000000296408000000000296408000000000000000000000000000000050000000000  0520200707   01          000                                                                                                                          00                                                         00298 10700060        000042
11089297354000044GUSTAVO  MOTA LINS DE AZEVEDO AVENIDA PRESIDENTE CASTELO BRANCO       5444005023701232700000000220361 0000000000388852000000000000000               202007070000000000000000000000000296408000000000296408000000000000000000000000000000050000000000  0520200707   01          000                                                                                                                          00                                                         00298 10700060        000043
11044504655000047LETICIA NUNES ROCHA           AVENIDA DEPUTADO SÍLVIO TEIXEIRA        4902510023702765000000000149683 0000000000388853000000000000000               202007070000000000000000000000000296408000000000296408000000000000000000000000000000050000000000  0520200707   01          000                                                                                                                          00                                                         00298 10700060        000044
11099389684000073MARIANA CAVALCANTI SANTOS DE ARUA JOSÉ BRÁS MOSCOW                    5441039023701232700000000259756 0000000000388854000000000000000               202007070000000000000000000000000296408000000000296408000000000000000000000000000000050000000000  0520200707   01          000                                                                                                                          00                                                         00298 10700060        000045
11044439753000014GABRIELA SAMPAIO BEM PEREIRA DRUA CONDE DE IRAJÁ                      5071031023702518600000000377627 0000000000388855000000000000000               202007070000000000000000000000000296408000000000296408000000000000000000000000000000050000000000  0520200707   01          000                                                                                                                          00                                                         00298 10700060        000046
11029795613000020INA KELLY PINHEIRO DE MOURA   AVENIDA ANÍSIO DA LUZ                   6460409023700937700000000569607 0000000000388856000000000000000               202007070000000000000000000000000296408000000000296408000000000000000000000000000000050000000000  0520200707   01          000                                                                                                                          00                                                         00298 10700060        000047
11010588064000075LUIS FELIPE OLIVEIRA MACIEL   RUA DOUTOR ANAURO DORNELLAS CÂMARA      5207138023701164900000000130265 0000000000388857000000000000000               202007070000000000000000000000000296408000000000296408000000000000000000000000000000050000000000  0520200707   01          000                                                                                                                          00                                                         00298 10700060        000048
11030406863000021RAVELLY RAICE MACEDO LEAL     RUA LUZIA FLORÊNCIO PORTO               5501474023706345200000000153567 0000000000388858000000000000000               202007070000000000000000000000000296408000000000296408000000000000000000000000000000050000000000  0520200707   01          000                                                                                                                          00                                                         00298 10700060        000049
11089602924000078LUIZ RAFAEL PEREIRA CAVALCANTIRUA PROFESSOR AUGUSTO LINS E SILVA      5103003023706344400000000036439 0000000000388859000000000000000               202007070000000000000000000000000296408000000000296408000000000000000000000000000000050000000000  0520200707   01          000                                                                                                                          00                                                         00298 10700060        000050
11058666874000088SAMILA FERNANDES DOS SANTOS ANRUA JOSÉ CABRAL ACIOLI                  5703523823706341000000000088706 0000000000388860000000000000000               202007070000000000000000000000000296408000000000296408000000000000000000000000000000050000000000  0520200707   01          000                                                                                                                          00                                                         00298 10700060        000051
11031076684000027POLLYANNA DE FRANCA SILVA FRANRUA ALTO DA MANGUEIRA, 58                       23703217400000003004236 0000000000388861000000000000000               202007070000000000000000000000000296408000000000296408000000000000000000000000000000050000000000  0520200707   01          000                                                                                                                          00                                                         00298 10700060        000052
11105788524000003RAYANE KARINE SANTOS MENINO   RUA JUPARANÁ                            5134029023706342800000000152099 0000000000388862000000000000000               202007070000000000000000000000000296408000000000296408000000000000000000000000000000050000000000  0520200707   01          000                                                                                                                          00                                                         00298 10700060        000053
11105223234000056VITORIA KAROLLYNNE ALBUQUERQUEAVENIDA JOÃO DE BARROS                  5010002023703190900000000331635 0000000000388863000000000000000               202007070000000000000000000000000296408000000000296408000000000000000000000000000000050000000000  0520200707   01          000                                                                                                                          00                                                         00298 10700060        000054
11051602484000012FELIPE DIEGO VIANA PEREIRA DE RUA ANTONIO GABRIEL DE ARAUJO           5646000023706041000000000087718 0000000000388864000000000000000               202007070000000000000000000000000296408000000000296408000000000000000000000000000000050000000000  0520200707   01          000                                                                                                                          00                                                         00298 10700060        000055
11083759204000060IZABELLA SOARES PEIXOTO COSTA RUA DOS NAVEGANTES                      5111108023701771000000000278904 0000000000388865000000000000000               202007070000000000000000000000000296408000000000296408000000000000000000000000000000050000000000  0520200707   01          000                                                                                                                          00                                                         00298 10700060        000056
11064878424000000MARIANA ARIMATEIA DE VIVEIROS RUA CLEVELÂNDIA                         5126029023706342800000000134120 0000000000388866000000000000000               202007070000000000000000000000000296408000000000296408000000000000000000000000000000050000000000  0520200707   01          000                                                                                                                          00                                                         00298 10700060        000057
11079108424000081CIBELE VIRGINIA MORAIS DE MELORUA GENERAL AMERICANO FREIRE            5102112023703453300000000526029 0000000000388867000000000000000               202007070000000000000000000000000296408000000000296408000000000000000000000000000000050000000000  0520200707   01          000                                                                                                                          00                                                         00298 10700060        000058
11064413683000090KAROLAINE RODRIGUES DA SILVA  RUA ANTONIO RODRIGUES                   6464000023700937700000000563277 0000000000388868000000000000000               202007070000000000000000000000000296408000000000296408000000000000000000000000000000050000000000  0520200707   01          000                                                                                                                          00                                                         00298 10700060        000059
11070996564000081SERGIO ROBERTO SIMOES HOULY JURUA GUARABU                             5705250523706343600000000053279 0000000000388869000000000000000               202007070000000000000000000000000296408000000000296408000000000000000000000000000000050000000000  0520200707   01          000                                                                                                                          00                                                         00298 10700060        000060
11052292464000064IAN FERGUNSON RAMALHO DE LACERRUA MARIETA STEIMBACH SILVA             5804332023701061800000000066303 0000000000388870000000000000000               202007070000000000000000000000000296408000000000296408000000000000000000000000000000050000000000  0520200707   01          000                                                                                                                          00                                                         00298 10700060        000061
11080971594000057MARILIA EWEN DE SENA          RUA PRIMAVERA                           5473328023701903800000000325295 0000000000388871000000000000000               202007070000000000000000000000000296408000000000296408000000000000000000000000000000050000000000  0520200707   01          000                                                                                                                          00                                                         00298 10700060        000062
11068563504000006DIEGO LIMA ALVES DA SILVA     RUA RODRIGUES SETE                      5205123023706342800000000075094 0000000000388872000000000000000               202007070000000000000000000000000296408000000000296408000000000000000000000000000000050000000000  0520200707   01          000                                                                                                                          00                                                         00298 10700060        000063
11102013014000082FERNANDA LESSA FERREIRA       RUA DO FUTURO                           5205000523706343600000000026123 0000000000388873000000000000000               202007070000000000000000000000000296408000000000296408000000000000000000000000000000050000000000  0520200707   01          000                                                                                                                          00                                                         00298 10700060        000064
11009825843000050RAFAEL AIRES DE CASTRO        RUA DOM JOSÉ LOURENÇO                   6045552523706343600000000053791 0000000000388874000000000000000               202007070000000000000000000000000296408000000000296408000000000000000000000000000000050000000000  0520200707   01          000                                                                                                                          00                                                         00298 10700060        000065
11087411364000046JOYCE SANTANA DO NASCIMENTO   RUA MONTE AZUL                          5204138023701606300000000499056 0000000000388875000000000000000               202007070000000000000000000000000296408000000000296408000000000000000000000000000000050000000000  0520200707   01          000                                                                                                                          00                                                         00298 10700060        000066
11090208424000004LUIZ FELIPE  ABRANTES SARMENTORUA CARLOS VASCONCELOS                  6011517023700769200000000370762 0000000000388876000000000000000               202007070000000000000000000000000296408000000000296408000000000000000000000000000000050000000000  0520200707   01          000                                                                                                                          00                                                         00298 10700060        000067
11092290024000088VALERIA CRISTINA ISRAEL DE SOURUA JOSÉ BRÁS MOSCOW                    5441039023701232700000003505383 0000000000388877000000000000000               202007070000000000000000000000000296408000000000296408000000000000000000000000000000050000000000  0520200707   01          000                                                                                                                          00                                                         00298 10700060        000068
11088278464000017DORIS PIRES GOMES             RUA NOSSA SENHORA DE FÁTIMA             5442022023701232700000000836052 0000000000388878000000000000000               202007070000000000000000000000000296408000000000296408000000000000000000000000000000050000000000  0520200707   01          000                                                                                                                          00                                                         00298 10700060        000069
11010535894000009JESSICA EMILLE DE MOURA ROCHA RUA LINDOLFO GONÇALVES CHAVES           5805120023703439800000000057436 0000000000388879000000000000000               202007070000000000000000000000000296408000000000296408000000000000000000000000000000050000000000  0520200707   01          000                                                                                                                          00                                                         00298 10700060        000070
11073965104000081TAINAN DE MORAIS BISPO        RUA MARIA DO CARMO CATUNDA              5091027023701230000000000096709 0000000000388880000000000000000               202007070000000000000000000000000296408000000000296408000000000000000000000000000000050000000000  0520200707   01          000                                                                                                                          00                                                         00298 10700060        000071
11112060954000023LAIS RIBEIRO DO VALLE SALES   AVENIDA BEIRA RIO                       5061010023706342800000000152048 0000000000388881000000000000000               202007070000000000000000000000000296408000000000296408000000000000000000000000000000050000000000  0520200707   01          000                                                                                                                          00                                                         00298 10700060        000072
11045659124000090ALESSANDRO ALVES DE ALMEIDA   RUA JOSÉ BONIFÁCIO                      5071043523701232700000001800183 0000000000388882000000000000000               202007070000000000000000000000000296408000000000296408000000000000000000000000000000050000000000  0520200707   01          000                                                                                                                          00                                                         00298 10700060        000073
11102466414000079ANTONIO LUCAS FERREIRA FEITOSARUA JEQUITIBÁ                           5707406023703902000000000100951 0000000000388883000000000000000               202007070000000000000000000000000296408000000000296408000000000000000000000000000000050000000000  0520200707   01          000                                                                                                                          00                                                         00298 10700060        000074
11090288664000093NAYARA ALEXANDRA RODRIGUES DA RUA NOVE DE JULHO                       5707114123701138000000000267945 0000000000388884000000000000000               202007070000000000000000000000000296408000000000296408000000000000000000000000000000050000000000  0520200707   01          000                                                                                                                          00                                                         00298 10700060        000075
11114196944000005LAIS BATISTA DE LIMA          RUA MARIA ANUNCIADA PINHEIRO DIAS       5581973523701783300000000322822 0000000000388885000000000000000               202007070000000000000000000000000296408000000000296408000000000000000000000000000000050000000000  0520200707   01          000                                                                                                                          00                                                         00298 10700060        000076
11107953054000019GABRIELA FARIAS DA SILVA      RUA SÃO CAETANO                         5343575023706298700000000125857 0000000000388886000000000000000               202007070000000000000000000000000296408000000000296408000000000000000000000000000000050000000000  0520200707   01          000                                                                                                                          00                                                         00298 10700060        000077
11094559614000066KHEROLLEY  ROMANA RAMOS DA SILRUA RODRIGUES FERREIRA                  5081002023702085000000000004740 0000000000388887000000000000000               202007070000000000000000000000000296408000000000296408000000000000000000000000000000050000000000  0520200707   01          000                                                                                                                          00                                                         00298 10700060        000078
11045489553000048DENISE  QUENTAL CALLOU        RUA PIO IX                              5071026023701164900000000057835 0000000000388888000000000000000               202007070000000000000000000000000296408000000000296408000000000000000000000000000000050000000000  0520200707   01          000                                                                                                                          00                                                         00298 10700060        000079
11038908201000058CAIO CESAR DE CARVALHO CAVALCAAVENIDA ARMINDO MOURA                   5113018023703453300000000526142 0000000000388889000000000000000               202007070000000000000000000000000296408000000000296408000000000000000000000000000000050000000000  0520200707   01          000                                                                                                                          00                                                         00298 10700060        000080
11096928744000051LARYSSA BARRETO SOUSA         RUA DUARTE COELHO                       5436012023702947500000000496391 0000000000388890000000000000000               202007070000000000000000000000000296408000000000296408000000000000000000000000000000050000000000  0520200707   01          000                                                                                                                          00                                                         00298 10700060        000081
11045185425000009ARTHUR EMMANUEL DE SOUSA FONTERUA GUADALAJARA                         4014046123703237900000000038164 0000000000388891000000000000000               202007070000000000000000000000000296408000000000296408000000000000000000000000000000050000000000  0520200707   01          000                                                                                                                          00                                                         00298 10700060        000082
11021864283000000FELIPE BARBOSA RIOS           RUA ANTENOR ROCHA ALEXANDRE             6082179523703206900000000176605 0000000000388892000000000000000               202007070000000000000000000000000296408000000000296408000000000000000000000000000000050000000000  0520200707   01          000                                                                                                                          00                                                         00298 10700060        000083
11051943754000033WALKYRIA HENRIQUE CAMPOS SILVARUA JOSÉ PONCIANO                       5091006023705619700000000239305 0000000000388893000000000000000               202007070000000000000000000000000296408000000000296408000000000000000000000000000000050000000000  0520200707   01          000                                                                                                                          00                                                         00298 10700060        000084
11102445684000064LUIZE OLIVEIRA BEZERRA        RUA RIO PAJEÚ                           5123036023702798700000000494798 0000000000388894000000000000000               202007070000000000000000000000000296408000000000296408000000000000000000000000000000050000000000  0520200707   01          000                                                                                                                          00                                                         00298 10700060        000085
11062246734000046DANIELLE BARBOSA DA SILVA     RUA AQUIDABÃ                            5103028023706344400000000046701 0000000000388895000000000000000               202007070000000000000000000000000296408000000000296408000000000000000000000000000000050000000000  0520200707   01          000                                                                                                                          00                                                         00298 10700060        000086
11051566574000060LAILSON LUIZ DE SOUZA         RUA CARDEAL ARCOVERDE                   5201124023706342800000000079642 0000000000388896000000000000000               202007070000000000000000000000000296408000000000296408000000000000000000000000000000050000000000  0520200707   01          000                                                                                                                          00                                                         00298 10700060        000087
11096994374000013ISABEL DE CARVALHO RODRIGUES DPRAÇA PROFESSOR FLEMING                 5205018023706342800000000136638 0000000000388897000000000000000               202007070000000000000000000000000296408000000000296408000000000000000000000000000000050000000000  0520200707   01          000                                                                                                                          00                                                         00298 10700060        000088
11055394924000012CAIO HENRIQUE PINA DE SOUZA   RUA ENGENHEIRO JAIR FURTADO MEIRELLES   5206136023703205000000000021725 0000000000388898000000000000000               202007070000000000000000000000000296408000000000296408000000000000000000000000000000050000000000  0520200707   01          000                                                                                                                          00                                                         00298 10700060        000089
11084938074000000RAFAEL PARISI DE AMORIM       RUA MONSENHOR SILVA                     5061036023703206900000000071722 0000000000388899000000000000000               202007070000000000000000000000000296408000000000296408000000000000000000000000000000050000000000  0520200707   01          000                                                                                                                          00                                                         00298 10700060        000090
11055386933000076INGLYTTY FRANCISCA OLIVEIRA   AVENIDA DA INTEGRAÇÃO                   5633029023701983600000000035610 0000000000388900000000000000000               202007070000000000000000000000000296408000000000296408000000000000000000000000000000050000000000  0520200707   01          000                                                                                                                          00                                                         00298 10700060        000091
11002240593000035JOAO BOSCO  BARRETO COUTO NETORUA GENERAL LAGES                       6404835023702120200000000140805 0000000000388901000000000000000               202007070000000000000000000000000296408000000000296408000000000000000000000000000000050000000000  0520200707   01          000                                                                                                                          00                                                         00298 10700060        000092
11013775684000040PATRICIA MENDES CORTE-REAL    RUA DO SOSSEGO                          5005008023700286000000000030325 0000000000388902000000000000000               202007070000000000000000000000000296408000000000296408000000000000000000000000000000050000000000  0520200707   01          000                                                                                                                          00                                                         00298 10700060        000093
11097868474000058NATALIA MARIA SANTANA DE ALBUQVILA ASSUNÇÃO                           5067003023703935700000000177865 0000000000388903000000000000000               202007070000000000000000000000000296408000000000296408000000000000000000000000000000050000000000  0520200707   01          000                                                                                                                          00                                                         00298 10700060        000094
11105116904000060GISELE MATIAS DE FREITAS      RUA AYRTON SENNA DO BRASIL              5209075523705635900000000473022 0000000000388904000000000000000               202007070000000000000000000000000296408000000000296408000000000000000000000000000000050000000000  0520200707   01          000                                                                                                                          00                                                         00298 10700060        000095
11065166314000084MARCELO HENRIQUE FERREIRA FERNRUA JORNALISTA TRAJANO CHACON           5007041023706344400000000045799 0000000000388905000000000000000               202007070000000000000000000000000296408000000000296408000000000000000000000000000000050000000000  0520200707   01          000                                                                                                                          00                                                         00298 10700060        000096
11101614424000055HELLYSSON PHYLLIPE FIRMINO CAVRUA JACÓ VELOSINO                       5206141023701230000000000102741 0000000000388906000000000000000               202007070000000000000000000000000296408000000000296408000000000000000000000000000000050000000000  0520200707   01          000                                                                                                                          00                                                         00298 10700060        000097
11062620504000026GIANCA MARIA SILVA PORTO      RUA AMÁLIA BERNARDINO DE SOUSA          5102115023702655700000000025496 0000000000388907000000000000000               202007070000000000000000000000000296408000000000296408000000000000000000000000000000050000000000  0520200707   01          000                                                                                                                          00                                                         00298 10700060        000098
11099531704000060LEIDE DAIANE MARIA DO NASCIMENRUA MARIA QUITÉRIA                      5073104023700286000000000174327 0000000000388908000000000000000               202007070000000000000000000000000296408000000000296408000000000000000000000000000000050000000000  0520200707   01          000                                                                                                                          00                                                         00298 10700060        000099
11097012934000036EDNA JUDITE DA SILVA          RUA MANOEL CAVALCANTE DE ARAUJO         5695000023702211000000000069485 0000000000388909000000000000000               202007070000000000000000000000000296408000000000296408000000000000000000000000000000050000000000  0520200707   01          000                                                                                                                          00                                                         00298 10700060        000100
11076254274000080RAFAELLA GUEDES GONCALVES     RUA HIPÓLITO BRAGA                      5204131023702322100000003519902 0000000000388910000000000000000               202007070000000000000000000000000296408000000000296408000000000000000000000000000000050000000000  0520200707   01          000                                                                                                                          00                                                         00298 10700060        000101
11049034273000066GEOVANE DINO ARAUJO JUNIOR    RUA FILIPINHO                           6572500023701026000000000213373 0000000000388911000000000000000               202007070000000000000000000000000296408000000000296408000000000000000000000000000000050000000000  0520200707   01          000                                                                                                                          00                                                         00298 10700060        000102
11035288603000008JOSUE ALMEIDA VIEIRA NETO     RUA C                                           23705635900000000447307 0000000000388912000000000000000               202007070000000000000000000000000296408000000000296408000000000000000000000000000000050000000000  0520200707   01          000                                                                                                                          00                                                         00298 10700060        000103
11007381533000003ANTONIA LARYSSA DE MOURA LAVORRUA DA INDEPENDÊNCIA                    6460764523700937700000000563250 0000000000388913000000000000000               202007070000000000000000000000000296408000000000296408000000000000000000000000000000050000000000  0520200707   01          000                                                                                                                          00                                                         00298 10700060        000104
11073746254000005KAUE  FRANKE                  RUA NOSSA SENHORA DOS NAVEGANTES        5803911023706342800000000098000 0000000000388914000000000000000               202007070000000000000000000000000296408000000000296408000000000000000000000000000000050000000000  0520200707   01          000                                                                                                                          00                                                         00298 10700060        000105
11087528134000060ATHENA TAMIRIS  DANTAS DE ALENRUA DUODÉCIMO ROSADO                    5960702023701044800000000247847 0000000000388915000000000000000               202007070000000000000000000000000296408000000000296408000000000000000000000000000000050000000000  0520200707   01          000                                                                                                                          00                                                         00298 10700060        000106
11112370624000070TAYNA VITORIA COSTA E SILVA   RUA TREZE                               5424012023705639100000000567329 0000000000388916000000000000000               202007070000000000000000000000000296408000000000296408000000000000000000000000000000050000000000  0520200707   01          000                                                                                                                          00                                                         00298 10700060        000107
11079361634000041IRWINS EMANUEL FEITOZA DE SOUSRUA ENGENHEIRO MÁRIO DE GUSMÃO          5703500023703229800000000097381 0000000000388917000000000000000               202007070000000000000000000000000296408000000000296408000000000000000000000000000000050000000000  0520200707   01          000                                                                                                                          00                                                         00298 10700060        000108
11088163124000083LUCAS GOMES DE MORAIS FULCO   RUA DOUTOR JOSÉ MARIA                   5204101523703201800000000314048 0000000000388918000000000000000               202007070000000000000000000000000296408000000000296408000000000000000000000000000000050000000000  0520200707   01          000                                                                                                                          00                                                         00298 10700060        000109
11052929964000008YNGRID CAROLINE LOPES LINS    RUA SANTO ANTÔNIO                       5706034023702145800000005318688 0000000000388919000000000000000               202007070000000000000000000000000296408000000000296408000000000000000000000000000000050000000000  0520200707   01          000                                                                                                                          00                                                         00298 10700060        000110
11085244294000070ANDRESSA MACHADO DA SILVA     AVENIDA DEPUTADO ALUÍSIO SOUTO PINTO    5529613023703212300000000470201 0000000000388920000000000000000               202007070000000000000000000000000296408000000000296408000000000000000000000000000000050000000000  0520200707   01          000                                                                                                                          00                                                         00298 10700060        000111
11100552714000080GISELE BARBOSA DE AGUIAR      SÍTIO CAIÇARAS                          5574500023703217400000000343587 0000000000388921000000000000000               202007070000000000000000000000000296408000000000296408000000000000000000000000000000050000000000  0520200707   01          000                                                                                                                          00                                                         00298 10700060        000112
11089811784000045AMANDA DE OLIVEIRA RAMOS SILVARUA CASSILÂNDIA                         5074037023701164900000000057770 0000000000388922000000000000000               202007070000000000000000000000000296408000000000296408000000000000000000000000000000050000000000  0520200707   01          000                                                                                                                          00                                                         00298 10700060        000113
11076727834000083PRYSCILLA MIRELE LIRA GOMES   RUA LOPES DE CARVALHO                   5061017023706343600000000023779 0000000000388923000000000000000               202007070000000000000000000000000296408000000000296408000000000000000000000000000000050000000000  0520200707   01          000                                                                                                                          00                                                         00298 10700060        000114
11072788824000027GUSTAVO LAGO OLIVEIRA DE SOUZARUA CAPITÃO SAMPAIO XAVIER              5205021723702518600000000377724 0000000000388924000000000000000               202007070000000000000000000000000296408000000000296408000000000000000000000000000000050000000000  0520200707   01          000                                                                                                                          00                                                         00298 10700060        000115
11090311064000045CIRO  CALHEIROS DE MIRANDA    RUA LUIZ BARBALHO                       5007012023706343600000000253790 0000000000388925000000000000000               202007070000000000000000000000000296408000000000296408000000000000000000000000000000050000000000  0520200707   01          000                                                                                                                          00                                                         00298 10700060        000116
11011012064000070MONICA DA ROCHA LEAO DE MAGALHRUA PROFESSOR JOÃO MEDEIROS             5102037023703201800000000263974 0000000000388926000000000000000               202007070000000000000000000000000296408000000000296408000000000000000000000000000000050000000000  0520200707   01          000                                                                                                                          00                                                         00298 10700060        000117
11107764884000073YURI HENRIQUE RODRIGUES DAMASCRUA ALEXANDRE DE GUSMÃO                 5063064023701055300000000400831 0000000000388927000000000000000               202007070000000000000000000000000296408000000000296408000000000000000000000000000000050000000000  0520200707   01          000                                                                                                                          00                                                         00298 10700060        000118
11830778202000034BARBARA MARIANA DOS SANTOS SILRUA CONDE D'EU                          5005047023700493600000001417681 0000000000388928000000000000000               202007070000000000000000000000000296408000000000296408000000000000000000000000000000050000000000  0520200707   01          000                                                                                                                          00                                                         00298 10700060        000119
11086167814000012ANDREIA ALVES MONTEIRO        TRAVESSA SERRA DO ARAGUAIA              5912701323700321200000001994590 0000000000388929000000000000000               202007070000000000000000000000000296408000000000296408000000000000000000000000000000050000000000  0520200707   01          000                                                                                                                          00                                                         00298 10700060        000120
11028604053000005THALIA ARIADNE PENA ARAGAO    AVENIDA NOSSA SENHORA DE FÁTIMA         6420222023702120200000000383287 0000000000388930000000000000000               202007070000000000000000000000000296408000000000296408000000000000000000000000000000050000000000  0520200707   01          000                                                                                                                          00                                                         00298 10700060        000121
11084094854000094LUCAS MONTARROYOS VASCONCELOS RUA DE CASA FORTE                       5206146023702322100000000706906 0000000000388931000000000000000               202007070000000000000000000000000296408000000000296408000000000000000000000000000000050000000000  0520200707   01          000                                                                                                                          00                                                         00298 10700060        000122
11053726184000026YANA GABRIELA SOARES PEREIRA DRUA CAIO PEREIRA                        5204101023706343600000002604957 0000000000388932000000000000000               202007070000000000000000000000000296408000000000296408000000000000000000000000000000050000000000  0520200707   01          000                                                                                                                          00                                                         00298 10700060        000123
11101383954000046NICOLAS RUAN DOS SANTOS CAVALCRUA ALICE CADETE                        5537000023706044500000000102865 0000000000388933000000000000000               202007070000000000000000000000000296408000000000296408000000000000000000000000000000050000000000  0520200707   01          000                                                                                                                          00                                                         00298 10700060        000124
11077818454000047JULIANO DA ROCHA COSTA        RUA JITÓ                                5009034023706342800000000134244 0000000000388934000000000000000               202007070000000000000000000000000296408000000000296408000000000000000000000000000000050000000000  0520200707   01          000                                                                                                                          00                                                         00298 10700060        000125
11014226624000089LUCAS EDUARDO EMIDIO SARMENTO RUA DOUTOR JOSÉ MARIA                   5204106523706342800000000098280 0000000000388935000000000000000               202007070000000000000000000000000296408000000000296408000000000000000000000000000000050000000000  0520200707   01          000                                                                                                                          00                                                         00298 10700060        000126
11092857784000088JORDANIA JEFLAT LIMA DA SILVA RUA URBANO BARBOSA                      5571500023701784100000000192481 0000000000388936000000000000000               202007070000000000000000000000000296408000000000296408000000000000000000000000000000050000000000  0520200707   01          000                                                                                                                          00                                                         00298 10700060        000127
11089741004000010GABRIELLE SOUZA BARBOSA DA SILRUA CONDE DE IRAJÁ                      5071031023706342800000000079677 0000000000388937000000000000000               202007070000000000000000000000000296408000000000296408000000000000000000000000000000050000000000  0520200707   01          000                                                                                                                          00                                                         00298 10700060        000128
11106921884000079CYBELLE DA SILVA OLIVEIRA     AVENIDA LORIVAL BEZERRA DOS SANTOS      5806706823702340000000000192287 0000000000388938000000000000000               202007070000000000000000000000000296408000000000296408000000000000000000000000000000050000000000  0520200707   01          000                                                                                                                          00                                                         00298 10700060        000129
11081581334000010EDUARDA SANTA ROSA BARATA     RUA JOANA NOBERTO PESSOA                5313003023706298700000000021164 0000000000388939000000000000000               202007070000000000000000000000000296408000000000296408000000000000000000000000000000050000000000  0520200707   01          000                                                                                                                          00                                                         00298 10700060        000130
11097121444000010HELENA RAMOS LACERDA DE MELO  RUA LEONARDO BEZERRA CAVALCANTI         5206003023706342800000000098302 0000000000388940000000000000000               202007070000000000000000000000000296408000000000296408000000000000000000000000000000050000000000  0520200707   01          000                                                                                                                          00                                                         00298 10700060        000131
11096923674000036MARIA JESSICA DA SILVA        RUA COMENDADOR MIGUEL GASTÃO DE OLIVEIRA5564144023700283600000000201928 0000000000388941000000000000000               202007070000000000000000000000000296408000000000296408000000000000000000000000000000050000000000  0520200707   01          000                                                                                                                          00                                                         00298 10700060        000132
11064294214000057CARLOS TIAGO  DA SILVEIRA CHAVRUA DAS CREOULAS                        5201127023700493600000000144916 0000000000388942000000000000000               202007070000000000000000000000000296408000000000296408000000000000000000000000000000050000000000  0520200707   01          000                                                                                                                          00                                                         00298 10700060        000133
11098316084000088ANDREY FREITAS DUARTE         RUA ROSA DE LIMA                        5906566023705882300000000152501 0000000000388943000000000000000               202007070000000000000000000000000296408000000000296408000000000000000000000000000000050000000000  0520200707   01          000                                                                                                                          00                                                         00298 10700060        000134
11077460234000010CYNTHIA KARINA DE MESQUITA COSRUA AQUIDABÃ                            5103028023702301900000000330426 0000000000388944000000000000000               202007070000000000000000000000000296408000000000296408000000000000000000000000000000050000000000  0520200707   01          000                                                                                                                          00                                                         00298 10700060        000135
11108988724000080GRACIELLY KARINE TAVARES SOUZARUA CORONEL MARANHAO                    5587000023701877500000000271624 0000000000388945000000000000000               202007070000000000000000000000000296408000000000296408000000000000000000000000000000050000000000  0520200707   01          000                                                                                                                          00                                                         00298 10700060        000136
11060053595000092DALVA ELOIZA SANTOS SILVA     AVENIDA JOÃO BATISTA DE CARVALHO        4858000023703672200000000045500 0000000000388946000000000000000               202007070000000000000000000000000296408000000000296408000000000000000000000000000000050000000000  0520200707   01          000                                                                                                                          00                                                         00298 10700060        000137
11072097484000040IANNE PESSOA HOLANDA          AVENIDA BOA VIAGEM                      5102000123702300000000002308959 0000000000388947000000000000000               202007070000000000000000000000000296408000000000296408000000000000000000000000000000050000000000  0520200707   01          000                                                                                                                          00                                                         00298 10700060        000138
11073732914000090GRAZIELE  AQUILA DE SOUZA BRANRUA AMÂNCIO ARAÚJO                      5631022023701122300000000076678 0000000000388948000000000000000               202007070000000000000000000000000296408000000000296408000000000000000000000000000000050000000000  0520200707   01          000                                                                                                                          00                                                         00298 10700060        000139
11107966554000048EMMANOEL MATHEUS DE OLIVEIRA MRUA CORONEL ALFREDO DUARTE              5083038023706342800000000133825 0000000000388949000000000000000               202007070000000000000000000000000296408000000000296408000000000000000000000000000000050000000000  0520200707   01          000                                                                                                                          00                                                         00298 10700060        000140
11045746863000075ANDRESSA OHANA REIS BANDEIRA  RUA MAJOR ARMANDO DE SOUZA MELO         5103018023706344400000000081639 0000000000388950000000000000000               202007070000000000000000000000000296408000000000296408000000000000000000000000000000050000000000  0520200707   01          000                                                                                                                          00                                                         00298 10700060        000141
11117972834000030ANDYARA TEIXEIRA CAVALCANTI   RUA DILERMANO REIS / SANTA LÚCIA                23703902000000000084921 0000000000388951000000000000000               202007070000000000000000000000000296408000000000296408000000000000000000000000000000050000000000  0520200707   01          000                                                                                                                          00                                                         00298 10700060        000142
11107747634000050RENATA AMORIM DE LUCENA       RUA SANTO ELIAS                         5202009523700835400000000206598 0000000000388952000000000000000               202007070000000000000000000000000296408000000000296408000000000000000000000000000000050000000000  0520200707   01          000                                                                                                                          00                                                         00298 10700060        000143
11089868384000000SHAMARA CRYSTYNNA CARDOSO SANTRUA DA SIMPATIA                         5630444023703101100000000363014 0000000000388953000000000000000               202007070000000000000000000000000296408000000000296408000000000000000000000000000000050000000000  0520200707   01          000                                                                                                                          00                                                         00298 10700060        000144
11107616424000020JACKELINE MAYARA INACIO MAGALHRUA AGOSTINHO NUNES DE MAGALHÃES        5690351023700651300000000065455 0000000000388954000000000000000               202007070000000000000000000000000296408000000000296408000000000000000000000000000000050000000000  0520200707   01          000                                                                                                                          00                                                         00298 10700060        000145
11096701994000009LAURA LUCINDA BEZERRA DA SILVARUA GUARATINGUETÁ                       5503456023706253700000000082864 0000000000388955000000000000000               202007070000000000000000000000000296408000000000296408000000000000000000000000000000050000000000  0520200707   01          000                                                                                                                          00                                                         00298 10700060        000146
11058426985000044TATIANE DE SOUZA SANTOS       RUA FLORIANO PEIXOTO                    5500426023706345200000000215074 0000000000388956000000000000000               202007070000000000000000000000000296408000000000296408000000000000000000000000000000050000000000  0520200707   01          000                                                                                                                          00                                                         00298 10700060        000147
11077299274000062EDISUELEN PRISCILA DE SOUZA TORua Pureza                              5915237323706777600000000031526 0000000000388957000000000000000               202007070000000000000000000000000296408000000000296408000000000000000000000000000000050000000000  0520200707   01          000                                                                                                                          00                                                         00298 10700060        000148
11076479524000047ERNANI FAEZY DE OLIVEIRA      RUA DOM PEDRO HENRIQUE                  5005015023705635900000000447285 0000000000388958000000000000000               202007070000000000000000000000000296408000000000296408000000000000000000000000000000050000000000  0520200707   01          000                                                                                                                          00                                                         00298 10700060        000149
11072995424000020VICTOR GOMES LIVERA REYES     RUA VISCONDE DE ITAPARICA               5071009023701230000000000097179 0000000000388959000000000000000               202007070000000000000000000000000296408000000000296408000000000000000000000000000000050000000000  0520200707   01          000                                                                                                                          00                                                         00298 10700060        000150
11091050894000017THAYS FLAVIA ASSIS DE OLIVEIRARUA DOM PEDRO HENRIQUE                  5005015023702322100000000210226 0000000000388960000000000000000               202007070000000000000000000000000296408000000000296408000000000000000000000000000000050000000000  0520200707   01          000                                                                                                                          00                                                         00298 10700060        000151
11111560454000060BARBARA ELAINE PAIVA FELIZARDOESTRADA DO ARRAIAL                      5205138023706342800000000134171 0000000000388961000000000000000               202007070000000000000000000000000296408000000000296408000000000000000000000000000000050000000000  0520200707   01          000                                                                                                                          00                                                         00298 10700060        000152
11086407634000070KARINA RAQUEL BARROS ARAUJO   RUA PRESIDENTE JOÃO PESSOA              5813500023702655700000000040320 0000000000388962000000000000000               202007070000000000000000000000000296408000000000296408000000000000000000000000000000050000000000  0520200707   01          000                                                                                                                          00                                                         00298 10700060        000153
11077072834000006SARA MARIA DOS SANTOS COSTA   RUA DONA LOURDES GALINDO PIMENTEL               23703230100000000317276 0000000000388963000000000000000               202007070000000000000000000000000296408000000000296408000000000000000000000000000000050000000000  0520200707   01          000                                                                                                                          00                                                         00298 10700060        000154
11101647974000032TATIANNE GONCALVES DA SILVA   RUA VITÓRIA                             5428079023701230000000000492582 0000000000388964000000000000000               202007070000000000000000000000000296408000000000296408000000000000000000000000000000050000000000  0520200707   01          000                                                                                                                          00                                                         00298 10700060        000155
11063839934000037GUSTAVO HENRIQUE LIMA DE OLIVERUA MINISTRO NELSON HUNGRIA             5102010023701771000000000120820 0000000000388965000000000000000               202007070000000000000000000000000296408000000000296408000000000000000000000000000000050000000000  0520200707   01          000                                                                                                                          00                                                         00298 10700060        000156
11071293364000063KIARA  KALLINE RODRIGUES VIRGURUA DOS NAVEGANTES                      5102101023702655700000000034878 0000000000388966000000000000000               202007070000000000000000000000000296408000000000296408000000000000000000000000000000050000000000  0520200707   01          000                                                                                                                          00                                                         00298 10700060        000157
11007617472000073TESSI CANDIDO GONCALVES COSTA RUA DALVA FILGUEIRAS DE ATHAYDE         5803851223703439800000004514149 0000000000388967000000000000000               202007070000000000000000000000000296408000000000296408000000000000000000000000000000050000000000  0520200707   01          000                                                                                                                          00                                                         00298 10700060        000158
11057529824000030WILLANY SILVERIO COSTA        RUA VINTE E QUATRO DE JUNHO             5203010023706342800000000134333 0000000000388968000000000000000               202007070000000000000000000000000296408000000000296408000000000000000000000000000000050000000000  0520200707   01          000                                                                                                                          00                                                         00298 10700060        000159
11054091624000020ELISA SERRA ALVIM DA SILVEIRA AVENIDA SAPÉ                            5803838023702322100000000120405 0000000000388969000000000000000               202007070000000000000000000000000296408000000000296408000000000000000000000000000000050000000000  0520200707   01          000                                                                                                                          00                                                         00298 10700060        000160
11074533934000042MARIA DO CEU DINIZ BORBOREMA  RUA SANDRA BORBOREMA                    5840012223702655700000000016799 0000000000388970000000000000000               202007070000000000000000000000000296408000000000296408000000000000000000000000000000050000000000  0520200707   01          000                                                                                                                          00                                                         00298 10700060        000161
11020148833000078ANDRE CANCIO DE OLIVEIRA AMORIRUA SOLON PINHEIRO                      6005004123701234300000000825352 0000000000388971000000000000000               202007070000000000000000000000000296408000000000296408000000000000000000000000000000050000000000  0520200707   01          000                                                                                                                          00                                                         00298 10700060        000162
11070419684000005KAMILA  DA SILVA SOUSA CUNHA  CONJUNTO JOSÉ TENÓRIO DE ALBUQUERQUE LIN5704635023702115600000000162345 0000000000388972000000000000000               202007070000000000000000000000000296408000000000296408000000000000000000000000000000050000000000  0520200707   01          000                                                                                                                          00                                                         00298 10700060        000163
11065749525000057VALERIA LOPES DA SILVA        RUA JOSE EUGENIO                        4479000023701885600000000261114 0000000000388973000000000000000               202007070000000000000000000000000296408000000000296408000000000000000000000000000000050000000000  0520200707   01          000                                                                                                                          00                                                         00298 10700060        000164
11070452744000083VIRGINIA  COSTA DE MOURA      RUA RODRIGUES ALVES                     5840055023706230800000000004677 0000000000388974000000000000000               202007070000000000000000000000000296408000000000296408000000000000000000000000000000050000000000  0520200707   01          000                                                                                                                          00                                                         00298 10700060        000165
11032141983000094LEONARDO JOSE MACEDO FILHO    AVENIDA PLÁCIDO ADERALDO CASTELO        6304054023700692000000000417947 0000000000388975000000000000000               202007070000000000000000000000000296408000000000296408000000000000000000000000000000050000000000  0520200707   01          000                                                                                                                          00                                                         00298 10700060        000166
11072114284000022JACIANE MARIA SOARES DOS SANTOAV MARECHAL CASTELO BRANCO              5480000023703217400000000342912 0000000000388976000000000000000               202007070000000000000000000000000296408000000000296408000000000000000000000000000000050000000000  0520200707   01          000                                                                                                                          00                                                         00298 10700060        000167
11077833214000045RENATO WILLAMY DA SILVA COSTA RUA IZABEL MAGALHÃES                    5103033023703226300000000225002 0000000000388977000000000000000               202007070000000000000000000000000296408000000000296408000000000000000000000000000000050000000000  0520200707   01          000                                                                                                                          00                                                         00298 10700060        000168
11085407454000061ERB  GAMA CAMBRAINHA MONTEIRO RUA SEVERIANO PEIXOTO                   5529305023706327400000000065641 0000000000388978000000000000000               202007070000000000000000000000000296408000000000296408000000000000000000000000000000050000000000  0520200707   01          000                                                                                                                          00                                                         00298 10700060        000169
11090056234000003BEATRIZ  DE SA RODRIGUES ARRAERUA CONEGO BERNARDINO                   5891500023701081200000000127604 0000000000388979000000000000000               202007070000000000000000000000000296408000000000296408000000000000000000000000000000050000000000  0520200707   01          000                                                                                                                          00                                                         00298 10700060        000170
11074110324000092AIANY SABRINY DE MACEDO NUNES RUA EMILIANO BRAGA - ATÉ 118/119                23702322100000002610884 0000000000388980000000000000000               202007070000000000000000000000000296408000000000296408000000000000000000000000000000050000000000  0520200707   01          000                                                                                                                          00                                                         00298 10700060        000171
11050924043000070KEDMA SUELEN BRAGA BARROS     RUA PEDRO MENDES VASCONCELOS                    23701579200000000586781 0000000000388981000000000000000               202007070000000000000000000000000296408000000000296408000000000000000000000000000000050000000000  0520200707   01          000                                                                                                                          00                                                         00298 10700060        000172
11083377894000033CLARA CELLY DINIZ OLIVEIRA    RUA ARLINDA GOMES DE MEDEIROS           5840761523700639400000000559873 0000000000388982000000000000000               202007070000000000000000000000000296408000000000296408000000000000000000000000000000050000000000  0520200707   01          000                                                                                                                          00                                                         00298 10700060        000173
11009772014000030BRENO DE ALBUQUERQUE SENNA    RUA DUQUE DE CAXIAS                     5500430023706345200000000092290 0000000000388983000000000000000               202007070000000000000000000000000296408000000000296408000000000000000000000000000000050000000000  0520200707   01          000                                                                                                                          00                                                         00298 10700060        000174
11071578314000090NATALIA PIRES PEREIRA         RUA PAULO HONÓRIO                       5633023523705617000000000176729 0000000000388984000000000000000               202007070000000000000000000000000296408000000000296408000000000000000000000000000000050000000000  0520200707   01          000                                                                                                                          00                                                         00298 10700060        000175
11060512594000057LARISSA NUNES MENEZES TORRES  RUA PADRE SILVINO GUEDES                5205035023701599700000000489700 0000000000388985000000000000000               202007070000000000000000000000000296408000000000296408000000000000000000000000000000050000000000  0520200707   01          000                                                                                                                          00                                                         00298 10700060        000176
11084070944000071FERNANDA MARIA AFONSO FERREIRARUA 22 SUL, LOTE 10, 10                         23702877000000000094862 0000000000388986000000000000000               202007070000000000000000000000000296408000000000296408000000000000000000000000000000050000000000  0520200707   01          000                                                                                                                          00                                                         00298 10700060        000177
11702616584000041JOYCI LARISSA SOUSA MOTA      RUA SANTA MARIA DA BOA VISTA            5503819023706345200000000174521 0000000000388987000000000000000               202007070000000000000000000000000296408000000000296408000000000000000000000000000000050000000000  0520200707   01          000                                                                                                                          00                                                         00298 10700060        000178
11073337344000055GESSYCA MARTINS DE SA TORRES  RUA DUODÉCIMO ROSADO                    5960302023707139000000000175625 0000000000388988000000000000000               202007070000000000000000000000000296408000000000296408000000000000000000000000000000050000000000  0520200707   01          000                                                                                                                          00                                                         00298 10700060        000179
11089253154000016LUHANI RANGEL MENDONCA        AVENIDA BOA VIAGEM                      5102100023706344400000000047325 0000000000388989000000000000000               202007070000000000000000000000000296408000000000296408000000000000000000000000000000050000000000  0520200707   01          000                                                                                                                          00                                                         00298 10700060        000180
11110763624000086ALINE VANESSA DA SILVA        RUA PROFESSOR TEODORICO CAVALCANTE      5564181823703217400000000343331 0000000000388990000000000000000               202007070000000000000000000000000296408000000000296408000000000000000000000000000000050000000000  0520200707   01          000                                                                                                                          00                                                         00298 10700060        000181
11961396331000068FRANCIELI APARECIDA DE OLIVEIRRUA ALAGOAS                             4897000023703106200000000112984 0000000000388991000000000000000               202007070000000000000000000000000296408000000000296408000000000000000000000000000000050000000000  0520200707   01          000                                                                                                                          00                                                         00298 10700060        000182
11099042114000077GERLAYNE RODRIGUES DE LIRA    TRAVESSA MARIA AMÉLIA DE FRANÇA         5575000023702992000000000398322 0000000000388992000000000000000               202007070000000000000000000000000296408000000000296408000000000000000000000000000000050000000000  0520200707   01          000                                                                                                                          00                                                         00298 10700060        000183
11095130234000051THAIS NEVES GOMES             RUA ADEMAR PIRES TRAVASSOS              5067006023701055300000000366846 0000000000388993000000000000000               202007070000000000000000000000000296408000000000296408000000000000000000000000000000050000000000  0520200707   01          000                                                                                                                          00                                                         00298 10700060        000184
11114467784000001MILLENA DE MELO CAVALCANTI    RUA LE PARC                             5116003523702518600000000356492 0000000000388994000000000000000               202007070000000000000000000000000296408000000000296408000000000000000000000000000000050000000000  0520200707   01          000                                                                                                                          00                                                         00298 10700060        000185
11077242744000052FELIPE GUSTAVO FERREIRA MATOS RUA ANTÔNIO BERNARDINO DE SENA          5730625023703169000000000192791 0000000000388995000000000000000               202007070000000000000000000000000296408000000000296408000000000000000000000000000000050000000000  0520200707   01          000                                                                                                                          00                                                         00298 10700060        000186
11104888364000076MAYARA SANTOS CAPITO          RUA SÃO SILVESTRE                       5135054023700289500000000336874 0000000000388996000000000000000               202007070000000000000000000000000296408000000000296408000000000000000000000000000000050000000000  0520200707   01          000                                                                                                                          00                                                         00298 10700060        000187
11095818774000060CAMILA MOURA DE PAFFER        RUA DOUTOR PEDRO DE MELO CAHU           5102008023706249900000000056766 0000000000388997000000000000000               202007070000000000000000000000000296408000000000296408000000000000000000000000000000050000000000  0520200707   01          000                                                                                                                          00                                                         00298 10700060        000188
11079244974000063ISABELLE DIEHL MONTANDON      AVENIDA FLOR DE SANTANA                 5206029023702322100000004625668 0000000000388998000000000000000               202007070000000000000000000000000296408000000000296408000000000000000000000000000000050000000000  0520200707   01          000                                                                                                                          00                                                         00298 10700060        000189
11053412224000082TALINE DE PAIVA PEREIRA       RUA AFONSO FERREIRA CHAVES              5560865523703217400000000343080 0000000000388999000000000000000               202007070000000000000000000000000296408000000000296408000000000000000000000000000000050000000000  0520200707   01          000                                                                                                                          00                                                         00298 10700060        000190
11094973444000065BARBARA ANDRADE LEIMIG RODRIGURUA PROFESSOR FRANCISCO DA TRINDADE     5203117023706343600000000053090 0000000000389000000000000000000               202007070000000000000000000000000296408000000000296408000000000000000000000000000000050000000000  0520200707   01          000                                                                                                                          00                                                         00298 10700060        000191
11086934704000077DAYANE ELIIAS SOARES          RUA: JUVENAL LAMARTINE                          23703226300000000722782 0000000000389001000000000000000               202007070000000000000000000000000296408000000000296408000000000000000000000000000000050000000000  0520200707   01          000                                                                                                                          00                                                         00298 10700060        000192
11074064644000036JARBAS BASTOS VALENCA DA FONSERUA OTACÍLIO NEPOMUCENO                 5841016023700639400000000636576 0000000000389002000000000000000               202007070000000000000000000000000296408000000000296408000000000000000000000000000000050000000000  0520200707   01          000                                                                                                                          00                                                         00298 10700060        000193
11044206993000061GEYMERSON LUIZ ALVES MACEDO   RUA ANTÔNIO TARGINO PESSOA DA SILVEIRA  5805225023703439800000000097888 0000000000389003000000000000000               202007070000000000000000000000000296408000000000296408000000000000000000000000000000050000000000  0520200707   01          000                                                                                                                          00                                                         00298 10700060        000194
11093090524000057THAMIRES RANILE FERREIRA      RUA PRIMEIRO DE MAIO                    5620000023706326600000000072761 0000000000389004000000000000000               202007070000000000000000000000000296408000000000296408000000000000000000000000000000050000000000  0520200707   01          000                                                                                                                          00                                                         00298 10700060        000195
11060680914000073CLAUDIONOR NOGUEIRA COSTA SEGURua Francisco da Cunha                  5102004123702134200000000285293 0000000000389005000000000000000               202007070000000000000000000000000296408000000000296408000000000000000000000000000000050000000000  0520200707   01          000                                                                                                                          00                                                         00298 10700060        000196
11096906874000033MARIO CORREIA DE ARAUJO       ESTRADA DE ALDEIA                       5475303723701055300000000342726 0000000000389006000000000000000               202007070000000000000000000000000296408000000000296408000000000000000000000000000000050000000000  0520200707   01          000                                                                                                                          00                                                         00298 10700060        000197
11097255294000048IVETT THEREZA DA SILVA BARBOSARUA LARGA DO FEITOSA                    5203014023703457600000002006200 0000000000389007000000000000000               202007070000000000000000000000000296408000000000296408000000000000000000000000000000050000000000  0520200707   01          000                                                                                                                          00                                                         00298 10700060        000198
11096663024000062ADOLPHO DE BARROS E SILVA DE ORUA ALFREDO DE MEDEIROS                 5202103023703206900000000061638 0000000000389008000000000000000               202007070000000000000000000000000296408000000000296408000000000000000000000000000000050000000000  0520200707   01          000                                                                                                                          00                                                         00298 10700060        000199
